:100000000C9434000C94D1000C9451000C94C10158
:100010000C9451000C9451000C9451000C9451001C
:100020000C9451000C9451000C9451000C9451000C
:100030000C9451000C9451000C945E010C945100EE
:100040000C9451000C9451000C9451000C945100EC
:100050000C9451000C9451000C9451000C945100DC
:100060000C9451000C94510011241FBECFEFD8E026
:10007000DEBFCDBF11E0A0E0B1E0E4EDF5E002C0ED
:1000800005900D92A230B107D9F721E0A2E0B1E0CE
:1000900001C01D92A630B207E1F70E94CA020C947B
:1000A000E8020C940000482F417050E0440F551FA7
:1000B000440F551F95B191FB222720F930E0220F04
:1000C000331F827090E095958795242B822B85B9FC
:1000D00008959BB194FB222720F930E0A9014295B5
:1000E0005295507F5427407F5427982F9270292F84
:1000F00030E035952795220F331F22953295307FBA
:100100003227207F322760E8869FC0011124242BEC
:10011000282B2BB90895282F227030E0359527958C
:10012000220F331F220F331F220F331F482F41701E
:1001300050E042955295507F5427407F5427422BE0
:1001400048B9089584B1856084B987B1886187B959
:100150008AB1806A8AB9089582E084BD8AEF87BD3A
:1001600082E8809380008AE1809381008CE980930B
:10017000870080E48093860087E28093890080E195
:100180008093880084B1826084B9089587E085BD3A
:1001900082E080936E00089515BC10926E0016BC2C
:1001A00008951F920F920FB60F9211242F933F9331
:1001B0004F935F936F937F938F939F93AF93BF936F
:1001C000EF93FF9380910201811167C08091030139
:1001D000882361F180910401811128C083E080931C
:1001E00005010E94CC0090910501809101019817B2
:1001F00009F453C083E080930501809105010E94BA
:100200008B001092890088EC809388008091050112
:1002100090910101891B92E3899F802D112487BD54
:1002200081E0809302010E94C60037C080910001E6
:10023000882399F183E08093050110920001909149
:1002400005018091010198130DC081E080930301A5
:1002500083E080930401809104010E9453000E9476
:10026000C6001BC083E080930501809105010E94B8
:100270008B001092890088EC8093880080910501A2
:1002800090910101891B92E3899F802D112487BDE4
:1002900081E0809302010E94C600FF91EF91BF911F
:1002A000AF919F918F917F916F915F914F913F910E
:1002B0002F910F900FBE0F901F9018951F920F92C5
:1002C0000FB60F9211242F933F934F935F936F9329
:1002D0007F938F939F93AF93BF93EF93FF938091FF
:1002E0000201811113C080910401882339F010921A
:1002F0000401809104010E94530032C00E94CC008E
:1003000081E080930001109203012AC080910501D1
:1003100080930101809101010E9469001092050102
:10032000809105010E948B0087E28093890080E123
:100330008093880010920201809101018093040152
:10034000809104010E9453008AEF87BD80910301D0
:10035000882319F01092030103C081E08093030108
:10036000FF91EF91BF91AF919F918F917F916F918D
:100370005F914F913F912F910F900FBE0F901F9063
:1003800018951F920F920FB60F9211242F933F933F
:100390004F935F936F937F938F939F93AF93BF938D
:1003A000CF93EF93FF93809102018111E1C01B9BDA
:1003B00066C080910301882351F18091040181116D
:1003C00026C081E0809305010E94CC009091050138
:1003D00080910101981709F4CBC0809105010E941A
:1003E0008B008EE48093890080E280938800809166
:1003F000010190910501891B92E3899F802D1124B1
:1004000087BD81E0809302010E94C600B1C0809147
:100410000001882309F4ACC081E0809305011092AB
:100420000001909105018091010198130CC081E0B9
:100430008093030180930401809104010E94530082
:100440000E94C60095C0C1E0C093050180910501DE
:100450000E948B008EE48093890080E28093880064
:100460008091010190910501891B92E3899F802D64
:10047000112487BDC09302010E94C60079C01C9B55
:1004800077C080910301882371F18091040181116B
:100490002AC082E0809305010E94CC009091050162
:1004A00080910101981709F463C0809105010E94B1
:1004B0008B009091050180910101891730F4109211
:1004C000890088EC8093880006C08EE480938900C0
:1004D00080E28093880082E387BD81E080930201FF
:1004E0000E94C60045C080910001882309F440C0E5
:1004F00082E08093050110920001909105018091A6
:10050000010198130DC081E08093030182E0809384
:100510000401809104010E9453000E94C60028C07B
:1005200082E080930501809105010E948B009091EB
:10053000050180910101891730F41092890088EC3F
:100540008093880006C08EE48093890080E28093C7
:1005500088008091050190910101891B92E3899F98
:10056000802D112487BD81E0809302010E94C60086
:10057000FF91EF91CF91BF91AF919F918F917F911B
:100580006F915F914F913F912F910F900FBE0F9000
:100590001F901895F89481E08DBB92E090936900CC
:1005A0001CBA8093680088E180936B000E94A200CF
:1005B0000E94AC007894809101010E9469008091B2
:1005C00005010E948B00809104010E945300FFCF1F
:0405D000F894FFCFCD
:0205D400010123
:00000001FF
