:100000000C9434000C9451000C9451000C94510049
:100010000C9451000C9451000C9451000C9451001C
:100020000C9451000C9451000C9451000C949D07B9
:100030000C9451000C9451000C9451000C945100FC
:100040000C9451000C9451000C94190E0C94510016
:100050000C9451000C9451000C9451000C945100DC
:100060000C9451000C94510011241FBECFEFD8E026
:10007000DEBFCDBF11E0A0E0B1E0E6E2FBE202C0EE
:1000800005900D92A236B107D9F727E0A2E6B1E0BC
:1000900001C01D92AF3CB207E1F70E94580D0C94CD
:1000A00091150C940000CF93DF93CDB7DEB784E2B7
:1000B00090E024E230E0F90120812460FC012083FB
:1000C00084E290E024E230E0F90120812260FC012A
:1000D000208384E290E024E230E0F9012081216075
:1000E000FC0120838AE290E02AE230E0F9012081DD
:1000F0002068FC0120838AE290E02AE230E0F901E6
:1001000020812062FC0120838AE290E02AE230E034
:10011000F90120812061FC01208387E290E027E241
:1001200030E0F90120812061FC01208387E290E02A
:1001300027E230E0F90120812860FC01208387E27A
:1001400090E027E230E0F90120812160FC0120836A
:100150000000DF91CF910895CF93DF93CDB7DEB745
:1001600088E290E028E230E0F90120812160FC0182
:1001700020830000DF91CF910895CF93DF93CDB717
:10018000DEB788E290E028E230E0F90120812E7F9E
:10019000FC0120830000DF91CF910895CF93DF937E
:1001A00000D01F92CDB7DEB78B830E94AC008B814D
:1001B000817089838BEF8A8385E290E025E230E0CD
:1001C000F90130812A812323422F2981222F30E017
:1001D000220F331F220F331F242BFC0120838B811E
:1001E0008695817089838DEF8A8385E290E025E290
:1001F00030E0F90130812A812323422F2981222FE7
:1002000030E0220F331F242BFC0120838B81869545
:100210008695817089838EEF8A8385E290E025E25E
:1002200030E0F90130812A8132232981232BFC011E
:1002300020838B81869586958695817089838FE74B
:100240008A838BE290E02BE230E0F90130812A8151
:100250002323422F2981222F30E03695322F222767
:1002600037952795242BFC0120838B8182958F70F5
:10027000817089838FED8A838BE290E02BE230E0FE
:10028000F90130812A812323422F2981222F30E056
:10029000220F331F22953295307F3227207F32275D
:1002A000242BFC0120838B81829586958770817039
:1002B00089838FEE8A838BE290E02BE230E0F901B4
:1002C00030812A812323422F2981222F30E0229559
:1002D0003295307F3227207F3227242BFC01208368
:1002E0008B818295869586958370817089838FEE48
:1002F0008A8388E290E028E230E0F90130812A81A7
:100300002323422F2981222F30E022953295307FFE
:100310003227207F3227242BFC0120838B81881FEA
:100320008827881F898387EF8A8388E290E028E204
:1003300030E0F90130812A812323422F2981222FA5
:1003400030E0220F331F220F331F220F331F242BC5
:10035000FC0120830E94BD0000000F900F900F90C1
:10036000DF91CF910895CF93DF9300D0CDB7DEB763
:100370009A83898389819A819C012D5F3F4F89816E
:100380009A81FC013283218389819A812FEF3FEF8B
:10039000FC013483238389819A819C012D5F3F4F27
:1003A00089819A81FC013683258389819A819C0108
:1003B0002D5F3F4F89819A81FC0130872783898196
:1003C0009A81FC01108200000F900F90DF91CF9175
:1003D0000895CF93DF9300D0CDB7DEB79A8389839A
:1003E00089819A81FC011186108600000F900F9080
:1003F000DF91CF910895CF93DF9300D000D000D04C
:10040000CDB7DEB79C838B837E836D838B819C818C
:10041000FC01818192819A8389838D819E812981CA
:100420003A81FC013383228389819A81FC012481F2
:1004300035818D819E81FC013583248389819A8158
:10044000FC01848195812D813E81FC0133832283CF
:1004500089819A812D813E81FC01358324838D81A0
:100460009E812B813C81FC01318720878B819C817F
:10047000FC01808121E0280F8B819C81FC0120837D
:10048000000026960FB6F894DEBF0FBECDBFDF91F9
:10049000CF910895CF93DF93CDB7DEB728970FB6EE
:1004A000F894DEBF0FBECDBF9E838D8378876F83A8
:1004B0008F819885FC01808191819C838B838B81C6
:1004C0009C81019641F48D819E81FC0187819085FC
:1004D0009A8389831AC08D819E8103969A8389832A
:1004E00007C089819A81FC01828193819A838983E3
:1004F00089819A81FC0182819381FC012081318173
:100500008B819C818217930760F789819A81FC0116
:10051000228133818F819885FC01338322838F81EF
:100520009885FC01828193812F813885FC01358378
:1005300024838F81988529813A81FC013583248326
:1005400089819A812F813885FC01338322838F81B1
:1005500098852D813E81FC01318720878D819E8188
:10056000FC01808121E0280F8D819E81FC01208388
:10057000000028960FB6F894DEBF0FBECDBFDF9106
:10058000CF910895CF93DF9300D000D0CDB7DEB7E1
:100590009C838B838B819C81FC01808591859A83D0
:1005A00089838B819C81FC01828193812B813C8199
:1005B000F90124813581FC01358324838B819C8161
:1005C000FC01848195812B813C81F9012281338159
:1005D000FC013383228389819A81FC01218132814C
:1005E0008B819C812817390751F48B819C81FC01F8
:1005F0002481358189819A81FC01328321838B8119
:100600009C81FC011186108689819A81FC01808180
:100610002FEF280F89819A81FC01208389819A819B
:10062000FC0180810F900F900F900F90DF91CF9180
:100630000895CF93DF93CDB7DEB72E970FB6F8941A
:10064000DEBF0FBECDBF9E878D871E821D820E949A
:10065000120A80914607882329F40E947A0481E0D7
:10066000809346078D859E85892B41F084E090E03C
:100670002D853E85820F931F9E878D878D859E8554
:10068000892B09F4B8C08D859E858B3D954008F077
:10069000B2C08EE397E09C838B8380913E0790915C
:1006A0003F079A8389830BC089819A819C838B83BE
:1006B00089819A81FC01808191819A8389838981D2
:1006C0009A81FC01228133818D859E852817390707
:1006D00038F489819A81FC0180819181892B21F7ED
:1006E00089819A818254974009F485C08B819C81CD
:1006F000FC012081318184E090E0820F931F9E8372
:100700008D8389819A81FC01208131818B819C813B
:10071000FC013183208389819A81FC01228133810C
:100720008D859E85281B390B84E090E0880F991FEA
:100730008217930708F04EC029813A818D859E85E6
:10074000820F931F9A87898789819A81FC01228170
:1007500033818D859E85281B390B89859A85FC01FF
:100760003383228389819A812D853E85FC013383E1
:10077000228389859A85FC01828193819C878B875E
:100780008EE397E098878F8307C08F819885FC015F
:100790008081918198878F838F819885FC018081EA
:1007A0009181FC01228133818B859C852817390733
:1007B00060F38F819885FC012081318189859A853C
:1007C000FC01318320838F81988529853A85FC013E
:1007D00031832083209100013091010189819A8128
:1007E000FC0182819381A901481B590BCA01909396
:1007F0000101809300010E941F0A8D819E812E9627
:100800000FB6F894DEBF0FBECDBFDF91CF91089534
:10081000CF93DF93CDB7DEB72A970FB6F894DEBF3C
:100820000FBECDBF9A87898789859A859C838B83E4
:1008300089859A85892B09F453C084E090E09195CD
:10084000819591092B813C81820F931F9C838B831F
:100850008B819C819E838D830E94120A8D819E8153
:10086000FC018281938198878F838EE397E09A833E
:10087000898307C089819A81FC01808191819A8353
:10088000898389819A81FC0180819181FC01228187
:1008900033818F8198852817390760F389819A8180
:1008A000FC01208131818D819E81FC013183208377
:1008B00089819A812D813E81FC01318320838D8144
:1008C0009E81FC0122813381809100019091010180
:1008D000820F931F90930101809300010E941F0AD1
:1008E00000002A960FB6F894DEBF0FBECDBFDF9191
:1008F000CF910895CF93DF9300D000D0CDB7DEB76E
:1009000083E691E09A83898389819A8190933F0756
:1009100080933E0710924107109240078BED95E0BF
:100920009093450780934407109243071092420723
:1009300089819A819C838B838B819C812BED35E00F
:10094000FC01338322838B819C8122E437E0FC010C
:100950003183208300000F900F900F900F90DF9154
:10096000CF910895CF93DF93CDB7DEB728970FB619
:10097000F894DEBF0FBECDBF9C838B837E836D83D7
:1009800058874F838B819C8121E1FC0120838B81DF
:100990009C8101979C838B838B819C8122E2FC014B
:1009A00020838B819C8101979C838B838B819C818D
:1009B00023E3FC0120838B819C8101979C838B83A3
:1009C0008D819E819A83898329818B819C81FC0101
:1009D00020838B819C8101979C838B8389819A8161
:1009E000892F99279A83898329818B819C81FC0196
:1009F00020838B819C8101979C838B838B819C813D
:100A0000FC0110828B819C8101979C838B838B815D
:100A10009C8120E8FC0120838B819C8101979C8331
:100A20008B838B819C81FC0110828B819C8101973F
:100A30009C838B838B819C8122E0FC0120838B81B2
:100A40009C8101979C838B838B819C8123E0FC019B
:100A500020838B819C8101979C838B838B819C81DC
:100A600024E0FC0120838B819C8101979C838B83F4
:100A70008B819C8125E0FC0120838B819C810197E7
:100A80009C838B838B819C8126E0FC0120838B815E
:100A90009C8101979C838B838B819C8127E0FC0147
:100AA00020838B819C8101979C838B838B819C818C
:100AB00028E0FC0120838B819C8101979C838B83A0
:100AC0008B819C8129E0FC0120838B819C81019793
:100AD0009C838B838B819C8120E1FC0120838B8113
:100AE0009C8101979C838B838B819C8121E1FC01FC
:100AF00020838B819C8101979C838B838B819C813C
:100B000022E1FC0120838B819C8101979C838B8354
:100B10008B819C8123E1FC0120838B819C81019747
:100B20009C838B838B819C8124E1FC0120838B81BE
:100B30009C8101979C838B838B819C8125E1FC01A7
:100B400020838B819C8101979C838B838B819C81EB
:100B500026E1FC0120838B819C8101979C838B8300
:100B60008B819C8127E1FC0120838B819C810197F3
:100B70009C838B838B819C8128E1FC0120838B816A
:100B80009C8101979C838B838B819C8129E1FC0153
:100B900020838B819C8101979C838B838B819C819B
:100BA00020E2FC0120838B819C8101979C838B83B5
:100BB0008B819C8121E2FC0120838B819C810197A8
:100BC0009C838B838B819C8122E2FC0120838B811F
:100BD0009C8101979C838B838B819C8123E2FC0108
:100BE00020838B819C8101979C838B838F81988547
:100BF0009A83898329818B819C81FC0120838B814D
:100C00009C8101979C838B8389819A81892F992765
:100C10009A83898329818B819C81FC0120838B812C
:100C20009C8101979C838B838B819C8126E2FC01B4
:100C300020838B819C8101979C838B838B819C81FA
:100C400027E2FC0120838B819C8101979C838B830D
:100C50008B819C8128E2FC0120838B819C81019700
:100C60009C838B838B819C8129E2FC0120838B8177
:100C70009C8101979C838B838B819C8120E3FC0169
:100C800020838B819C8101979C838B838B819C81AA
:100C900021E3FC0120838B819C8101979C838B83C2
:100CA0008B819C8128960FB6F894DEBF0FBECDBF16
:100CB000DF91CF910895CF93DF93CDB7DEB70E9438
:100CC0004607A0914707B0914807CD91CDBFDD9170
:100CD000DEBFFF91EF91DF91CF91BF91AF919F91D7
:100CE0008F917F916F915F914F913F912F911F91C4
:100CF0000F91FF90EF90DF90CF90BF90AF909F90BB
:100D00008F907F906F905F904F903F902F901F90AB
:100D10000F900FBE0F90089581E0DF91CF9108955D
:100D20000F920FB6F8940F921F9211242F923F92B8
:100D30004F925F926F927F928F929F92AF92BF92EB
:100D4000CF92DF92EF92FF920F931F932F933F93D7
:100D50004F935F936F937F938F939F93AF93BF93C3
:100D6000CF93DF93EF93FF93A0914707B09148078C
:100D70000DB60D920EB60D920E94EA0BA091470798
:100D8000B0914807CD91CDBFDD91DEBFFF91EF91CE
:100D9000DF91CF91BF91AF919F918F917F916F9193
:100DA0005F914F913F912F911F910F91FF90EF9085
:100DB000DF90CF90BF90AF909F908F907F906F907B
:100DC0005F904F903F902F901F900F900FBE0F900D
:100DD000089500000F920FB6F8940F921F921124FD
:100DE0002F923F924F925F926F927F928F929F923B
:100DF000AF92BF92CF92DF92EF92FF920F931F9329
:100E00002F933F934F935F936F937F938F939F9312
:100E1000AF93BF93CF93DF93EF93FF93A0914707D7
:100E2000B09148070DB60D920EB60D920E94CD0AF4
:100E30000E94EA0BA0914707B0914807CD91CDBF22
:100E4000DD91DEBFFF91EF91DF91CF91BF91AF9127
:100E50009F918F917F916F915F914F913F912F91D2
:100E60001F910F91FF90EF90DF90CF90BF90AF90C8
:100E70009F908F907F906F905F904F903F902F90BA
:100E80001F900F900FBE0F9008950000CF93DF9337
:100E900000D000D01F92CDB7DEB780E89EE3A0E07F
:100EA000B0E089839A83AB83BC8389819A81AB81CB
:100EB000BC81689415F8B695A79597958795169473
:100EC000D1F789839A83AB83BC8389819A81AB8173
:100ED000BC810197A109B10989839A83AB83BC8343
:100EE00088E890E029813A81FC013183208380E801
:100EF00090E020E830E0F90120812C7FFC01208384
:100F00008BE08D8381E890E02D81FC0120838FE6CA
:100F100090E0FC0180818D838D8182608D838FE6DE
:100F200090E02D81FC01208300000F900F900F9026
:100F30000F900F90DF91CF9108950E94EA061895C7
:100F400000008F929F92AF92BF92CF92DF92EF926A
:100F5000FF920F931F93CF93DF93CDB7DEB76097C8
:100F60000FB6F894DEBF0FBECDBF9F838E83798707
:100F700068875B874A873D872C870E87F88AEF86CC
:100F80008A859B850E9419039D838C838C819D811A
:100F9000892BB9F084E290E00E9419039A83898337
:100FA00089819A81892B41F089819A812C813D81A7
:100FB000FC01308F278B07C08C819D810E94080423
:100FC00002C01A82198289819A81892B09F18A8546
:100FD0009B85CC01A0E0B0E009811A814F8558893A
:100FE0002C853D8568857985EE81FF81812C912C4A
:100FF00058016A01EE8489019C01AD01CF010E9474
:101000001E0889819A810E94E50881E08B8302C0D5
:101010008FEF8B838B8160960FB6F894DEBF0FBE87
:10102000CDBFDF91CF911F910F91FF90EF90DF9097
:10103000CF90BF90AF909F908F9008958F929F9286
:10104000AF92BF92CF92DF92EF920F931F93CF9305
:10105000DF93CDB7DEB764970FB6F894DEBF0FBE4F
:10106000CDBF9D838C837F836E83288739874A8792
:101070005B871D870C87EE86D88ACF86BA8AA98AB5
:101080009C8A8B8A89899A89FC012789308D888579
:1010900099850197820F931F9B838A83198221C0B0
:1010A0008981882F90E02981222F30E04E815F8155
:1010B000240F351FF901408129893A89820F931F36
:1010C0004996FC0140838981882F90E02E813F81E1
:1010D000820F931FFC018081882339F089818F5F03
:1010E000898389818430E0F201C0000089899A896E
:1010F000FC01148E8E85863010F085E08E878989FC
:101100009A892E85FC01268B89899A8902960E94EC
:10111000E90189899A890C960E94E90189899A894D
:1011200029893A89FC01318720878E85882F90E0B4
:1011300026E030E0281B390B89899A89FC01358724
:10114000248789899A8929893A89FC01338B228BE2
:1011500089899A89FC01168E158E89899A89FC01E4
:10116000178E10A211A212A289899A89FC0113A2DA
:101170004C855D852C813D818A819B81B9010E94CE
:10118000B2049C0189899A89FC01318320838F856F
:101190009889892B39F08F85988929893A89FC01AA
:1011A00031832083000064960FB6F894DEBF0FBE33
:1011B000CDBFDF91CF911F910F91EF90DF90CF9036
:1011C000BF90AF909F908F900895CF93DF9300D002
:1011D000CDB7DEB79A8389830FB6F8940F928091CA
:1011E0009E078F5F80939E078091470790914807E5
:1011F000892B69F489819A819093480780934707E6
:1012000080919E078130C9F40E947F0C16C08091A6
:10121000A207882391F48091470790914807FC0129
:10122000268989819A81FC018689821730F089811B
:101230009A8190934807809347078091A6078F5F14
:101240008093A60789819A81FC0196898091A107E4
:10125000891730F489819A81FC0186898093A107DE
:1012600089819A81AC014E5F5F4F89819A81FC012F
:101270008689282F30E0C901880F991F880F991F90
:10128000880F991F820F931F875B984FBA010E94A6
:10129000FB010F900FBE8091A207882371F080910F
:1012A000470790914807FC01268989819A81FC01B2
:1012B0008689281710F40E94900600000F900F9066
:1012C000DF91CF910895CF93DF93CDB7DEB72A9703
:1012D0000FB6F894DEBF0FBECDBF98878F837A8795
:1012E000698719820E94120A80919F079091A00736
:1012F0009B838A838F819885FC0120813181898538
:101300009A85820F931F9D838C838F819885FC0122
:10131000208131818A819B8182179307A0F48F817C
:101320009885FC01208131818C819D8182179307F2
:10133000E8F42C813D818A819B8182179307B0F468
:1013400081E0898313C08F819885FC0120813181E0
:101350008C819D818217930738F02C813D818A8191
:101360009B818217930710F481E089838F81988590
:101370002C813D81FC01318320838981882359F0B0
:101380002C813D818A819B81A901481B590BCA018F
:1013900060E00E94F00C0E941F0A8E838E818823D9
:1013A00011F40E94900600002A960FB6F894DEBF52
:1013B0000FBECDBFDF91CF910895EF92FF920F93B3
:1013C000CF93DF931F92CDB7DEB70F2EF9EAEF2E42
:1013D000F7E0FF2EF02D00E020E030E044EC50E09C
:1013E00066E171E08FE69CE00E94A1078983898114
:1013F000813081F4F8948FEF9FEF9093A80780934A
:10140000A70781E08093A2071092A00710929F0780
:101410000E945B0600000F90DF91CF910F91FF902B
:10142000EF900895CF93DF93CDB7DEB78091AB07F0
:101430008F5F8093AB070000DF91CF910895CF932A
:10144000DF9300D000D0CDB7DEB71A8219821B829D
:101450000FB6F8940F928091AB0781508093AB0741
:101460008091AB07882309F077C080919E0788237D
:1014700009F472C049C080919A0790919B07FC01C2
:10148000868197819A83898389819A810C960E94AB
:10149000C20289819A8102960E94C20289819A8140
:1014A000FC0196898091A107891730F489819A817E
:1014B000FC0186898093A10789819A81AC014E5FE6
:1014C0005F4F89819A81FC018689282F30E0C9010C
:1014D000880F991F880F991F880F991F820F931FDC
:1014E000875B984FBA010E94FB0189819A81FC01B8
:1014F00026898091470790914807FC018689281723
:1015000018F081E08093A40780919507882309F063
:10151000B2CF89819A81892B11F00E94C10C8091F0
:10152000A3078C838C81882379F00E94CD0A8823BD
:1015300019F081E08093A4078C8181508C838C8189
:10154000882399F71092A3078091A407882321F09C
:1015500081E08B830E9490060F900FBE8B810F90CD
:101560000F900F900F90DF91CF910895CF93DF935D
:1015700000D0CDB7DEB70FB6F8940F9280919F07D9
:101580009091A0079A8389830F900FBE89819A81D9
:101590000F900F90DF91CF910895CF93DF93CDB748
:1015A000DEB729970FB6F894DEBF0FBECDBF198204
:1015B0008091AB07882309F0C8C080919F07909164
:1015C000A00701969B838A838A819B819093A007C1
:1015D00080939F078A819B81892BD9F48091910701
:1015E000909192079D838C838091930790919407AB
:1015F00090939207809391078C819D81909394079B
:10160000809393078091A5078F5F8093A5070E9421
:10161000C10C8091A7079091A8072A813B812817C8
:10162000390708F478C08091910790919207FC01E6
:101630008081882339F48FEF9FEF9093A8078093E0
:10164000A70769C08091910790919207FC0185815D
:101650009681FC01868197819F838E838E819F81F5
:10166000FC0182819381998788872A813B818885C3
:1016700099852817390738F4888599859093A807A4
:101680008093A70748C08E819F8102960E94C20264
:101690008E819F81FC0184899589892B29F08E8117
:1016A0009F810C960E94C2028E819F81FC019689C7
:1016B0008091A107891730F48E819F81FC01868972
:1016C0008093A1078E819F81AC014E5F5F4F8E8119
:1016D0009F81FC018689282F30E0C901880F991F5E
:1016E000880F991F880F991F820F931F875B984F50
:1016F000BA010E94FB018E819F81FC0126898091A5
:10170000470790914807FC018689281708F48BCF7A
:1017100081E0898388CF8091470790914807FC0139
:101720008689282F30E0C901880F991F880F991FDB
:10173000880F991F820F931F875B984FFC01808150
:10174000823040F081E0898305C08091A3078F5FDC
:101750008093A3078091A407882311F081E08983F7
:10176000898129960FB6F894DEBF0FBECDBFDF91F9
:10177000CF910895CF93DF9300D000D000D0CDB7A4
:10178000DEB79C838B837E836D838B819C81892BC9
:1017900039F480914707909148079A83898304C060
:1017A0008B819C819A8389830FB6F8940F928981EB
:1017B0009A812D813E81FC01368F258F0F900FBEBF
:1017C000000026960FB6F894DEBF0FBECDBFDF91A6
:1017D000CF9108951F93CF93DF9300D01F92CDB781
:1017E000DEB78091AB07882321F081E08093A407C6
:1017F0006EC01092A4078091A107898303C08981DC
:10180000815089838981282F30E0C901880F991F71
:10181000880F991F880F991F820F931F875B984F1E
:10182000FC018081882359F38981282F30E0C90188
:10183000880F991F880F991F880F991F820F931F78
:10184000875B984F9B838A838A819B81FC0181817E
:101850009281FC01228133818A819B81FC01328348
:1018600021838A819B81FC01218132818A819B8134
:1018700003962817390769F48A819B81FC018181CD
:101880009281FC01228133818A819B81FC01328318
:1018900021838A819B81FC0181819281FC01868167
:1018A0009781909348078093470789818093A10788
:1018B0008091470790914807FC01858D968D182FE0
:1018C0000E94B60A20E040E0612F0E949A100000BA
:1018D0000F900F900F90DF91CF911F910895CF93AC
:1018E000DF9300D0CDB7DEB79A8389830E94B90C0D
:1018F000809149078230D0F30E949006F7CFCF93B2
:10190000DF931F92CDB7DEB7198213C08981282FCC
:1019100030E0C901880F991F880F991F880F991F00
:10192000820F931F875B984F0E94B30189818F5F5D
:1019300089838981863050F38FE797E00E94B30155
:1019400088E897E00E94B30185E997E00E94B3011F
:101950008FE797E0909392078093910788E897E04C
:10196000909394078093930700000F90DF91CF919D
:101970000895CF93DF93CDB7DEB70000DF91CF910D
:101980000895CF93DF9300D0CDB7DEB78091910754
:1019900090919207FC018081882339F48FEF9FEFAB
:1019A0009093A8078093A70715C080919107909105
:1019B0009207FC0185819681FC01868197819A833B
:1019C000898389819A81FC01828193819093A80700
:1019D0008093A70700000F900F90DF91CF9108959B
:1019E000CF93DF93CDB7DEB727970FB6F894DEBF5E
:1019F0000FBECDBF9E838D836F8380919F07909193
:101A0000A0079A838983809147079091480702969F
:101A10000E94C20229813A818D819E81820F931F8B
:101A20009C838B8380914707909148072B813C8151
:101A3000FC01338322832B813C8189819A81281781
:101A4000390778F480914707909148079C012E5FF1
:101A50003F4F8091930790919407B9010E944A02E9
:101A60001DC080914707909148079C012E5F3F4F12
:101A70008091910790919207B9010E944A0280914A
:101A8000A7079091A8072B813C812817390730F4CC
:101A90008B819C819093A8078093A70700002796CD
:101AA0000FB6F894DEBF0FBECDBFDF91CF91089582
:101AB000EF92FF920F93CF93DF93CDB7DEB70E94E3
:101AC000931280911201E12CF12C082F20E030E0DC
:101AD00044EC50E06BE171E088E99DE00E94A107D1
:101AE00080911301E12CF12C082F20E030E044EC30
:101AF00050E06EE171E083EC9DE00E94A1078091CF
:101B00001401E12CF12C082F20E030E044EC50E0EF
:101B100061E271E08EEE9DE00E94A1070E94DD0966
:101B200080E090E0DF91CF910F91FF90EF900895CA
:101B3000CF93DF9300D000D0CDB7DEB79C838B83EB
:101B400061E070E080E090E00E94BA0B1A82198296
:101B500080910201882F90E0BC01CE0101960E9485
:101B6000630980910C0190910D01BC0181E00E94FC
:101B70003A128091060190910701BC01CE010196B5
:101B80000E946309EECFCF93DF9300D000D0CDB792
:101B9000DEB79C838B8362E070E080E090E00E947F
:101BA000BA0B1A82198280910301882F90E0BC0140
:101BB000CE0101960E94630980910E0190910F0160
:101BC000BC0182E00E943A128091080190910901C3
:101BD000BC01CE0101960E946309EECFCF93DF9343
:101BE00000D000D0CDB7DEB79C838B8363E070E07C
:101BF00080E090E00E94BA0B1A8219828091040161
:101C0000882F90E0BC01CE0101960E94630980916B
:101C1000100190911101BC0183E00E943A12809161
:101C20000A0190910B01BC01CE0101960E9463094B
:101C3000EECF1F920F9200905F000F9211242F930E
:101C40003F938F939F93EF93FF93CF93DF93CDB702
:101C5000DEB780EC90E0FC0180818C718093B3074B
:101C600086EC90E0FC0180818093B40781EC90E0E9
:101C700021EC30E0F90120812F77FC01208378945A
:101C800080911501882F90E08130910561F18230BB
:101C90009105E1F1892B09F040C02091AC0730910A
:101CA000AD078091AF0791E0980F9093AF07882F11
:101CB00090E0820F931F2091B407FC012083909144
:101CC000B4078091B007981721F482E08093150142
:101CD00021C09091AF078091AE079817D9F481E0A9
:101CE0008093150117C08091B1079091B2070196BA
:101CF0009093B2078093B1079091B4078091B00799
:101D0000981751F482E08093150106C083E0809318
:101D1000150103C0000001C00000F89481EC90E0C0
:101D200021EC30E0F90120812068FC0120830000D3
:101D3000DF91CF91FF91EF919F918F913F912F91E3
:101D40000F9000925F000F901F901895CF93DF9334
:101D5000CDB7DEB784E0809315018091AC079091F8
:101D6000AD07892B61F01092AF071092B207109265
:101D7000B1071092B3071092B4071092150100003A
:101D8000DF91CF910895CF93DF9300D000D01F92C1
:101D9000CDB7DEB79B838A836C834D838FE590E05C
:101DA000FC018081807889838981882309F0F894F7
:101DB00085EC90E0FC01108284EC90E029E1FC01CC
:101DC000208380EC90E020EC30E0F90120812C7F32
:101DD000FC01208381EC90E028E9FC01208382EC67
:101DE00090E026E0FC01208309C01F93EF93FF934E
:101DF000E6ECFF271081FF91EF911F9180EC90E0BE
:101E0000FC01808188238CF38A819B819093AD07AC
:101E10008093AC078C818093AE078D818093B0074F
:101E20000E94A60E8981882309F0789400000F9003
:101E30000F900F900F900F90DF91CF910895CF9357
:101E4000DF9300D000D01F92CDB7DEB79C838B8389
:101E50006D838B819C81892BD9F11A8219821CC0D8
:101E6000000080EC90E0FC018081882F90E080727F
:101E70009927892BB1F326EC30E089819A81AC0156
:101E80004F5F5F4F5A8349834B815C81840F951F5D
:101E9000FC018081F90180832B813C8189819A81B9
:101EA000820F931FFC0190818D819817C9F6000065
:101EB00080EC90E0FC018081882F90E0807299276F
:101EC000892BB1F386EC90E02D81FC01208301C0C9
:101ED00000000F900F900F900F900F90DF91CF9117
:101EE0000895CF93DF93CDB7DEB784E290E024E28C
:101EF00030E0F90120812F7EFC01208384E290E014
:101F000024E230E0F90120812862FC0120838AE28A
:101F100090E02AE230E0F90120812860FC01208372
:101F200084E290E024E230E0F90120812460FC01A9
:101F300020838BE290E02BE230E0F90120812860E1
:101F4000FC0120838CE490E02CE5FC0120838DE4EF
:101F500090E02DE430E0F90120812160FC01208334
:101F60000000DF91CF910895AF92BF92CF92DF92A0
:101F7000EF92FF92CF93DF9300D000D000D0CDB787
:101F8000DEB79A8389837C836B835E834D832D8147
:101F90008D819E81892F9927482F398189819A8146
:101FA000892F9927582F8B819C81682F8B819C8149
:101FB000892F9927A22EB42EC32ED52EE62EF82EC9
:101FC0002F93EF93FF93CF93DF93AF93BF93AA2DFC
:101FD000BB2D0B2E0A2A09F1EDE4FF275B9822E0C6
:101FE0002EBD0D2C208127FBEEF72EB50EBC0C2C40
:101FF000208127FBEEF72EB50EBC208127FBEEF7E4
:102000002EB5CE2DDF2D09900EBC0990208127FB27
:10201000EEF72EB51197C1F75B9ABF91AF91DF91A3
:10202000CF91FF91EF912F91000026960FB6F89473
:10203000DEBF0FBECDBFDF91CF91FF90EF90DF905D
:10204000CF90BF90AF900895AF92BF92CF92DF92A2
:10205000EF92FF92CF93DF9300D000D000D0CDB7A6
:10206000DEB79A8389837C836B835E834D832D8166
:102070008D819E81892F9927482F398189819A8165
:10208000892F9927582F8B819C81682F8B819C8168
:10209000892F9927A22EB42EC32ED52EE62EF82EE8
:1020A0002F93EF93FF93CF93DF93AF93BF93AA2D1B
:1020B000BB2D0A2E0B2A39F1EDE4FF275B9823E0B4
:1020C0002EBD0D2C208127FBEEF72EB50EBC0C2C5F
:1020D000208127FBEEF72EB50EBC2FEF022E2081BC
:1020E00027FBEEF72EB50EBCCE2DDF2D2FEF008097
:1020F00007FAEEF70EB42EBD09921197C1F70080D2
:1021000007FAEEF75B9ABF91AF91DF91CF91FF9104
:10211000EF912F91000026960FB6F894DEBF0FBE08
:10212000CDBFDF91CF91FF90EF90DF90CF90BF9028
:10213000AF900895CF93DF93CDB7DEB728970FB652
:10214000F894DEBF0FBECDBF9D838C836E834F831B
:1021500028878E810E94CE008C819D819093C80734
:102160008093C7078E81882F90E09093CA07809351
:10217000C9078F81882F90E09093CC078093CB077D
:102180008885882F90E09093CE078093CD0780912B
:10219000B5079091B60748E050E067EC77E00E9401
:1021A000B40F8091B5079091B60708969093B60743
:1021B0008093B5078091B5079091B60781329E4410
:1021C00008F44EC18FE70E94CE001092B60710921D
:1021D000B5078DE0E4E2F1E0A7EBB7E001900D92E6
:1021E0008A95E1F76DE087EB97E00E941F0F8091E1
:1021F0000501882F90E0292F2F938F9381E391E0A1
:10220000892F8F9381E391E08F9387EB97E0892F5C
:102210008F9387EB97E08F930E94A7120F900F90F8
:102220000F900F900F900F906DE087EB97E00E945A
:102230001F0F198234C08981882F90E0880F991F61
:10224000845F9E4FFC01208131818981882F90E03D
:102250000196432F4F932F93292F2F938F938CE326
:1022600091E0892F8F938CE391E08F9387EB97E038
:10227000892F8F9387EB97E08F930E94A7128DB7DA
:102280009EB708960FB6F894DEBF0FBECDBF6DE0C7
:1022900087EB97E00E941F0F89818F5F8983809170
:1022A00005019981981738F21A8234C08A81882FE3
:1022B00090E0880F991F8A5F9E4FFC012081318139
:1022C0008A81882F90E00196432F4F932F93292FD7
:1022D0002F938F938CE391E0892F8F938CE391E080
:1022E0008F9387EB97E0892F8F9387EB97E08F93FE
:1022F0000E94A7128DB79EB708960FB6F894DEBF5E
:102300000FBECDBF6DE087EB97E00E941F0F8A8163
:102310008F5F8A83809105019A81981738F21B821A
:1023200033C08B81882F90E08E5F9E4FFC018081AF
:10233000282F30E08B81882F90E00196432F4F9318
:102340002F93292F2F938F938CE391E0892F8F93D5
:102350008CE391E08F9387EB97E0892F8F9387EB46
:1023600097E08F930E94A7128DB79EB708960FB67D
:10237000F894DEBF0FBECDBF6DE087EB97E00E9403
:102380001F0F8B818F5F8B83809105019B81981735
:1023900040F24CC08091B5079091B60748E050E0FC
:1023A00067EC77E00E9424106091CD077091CE0712
:1023B0004091CB075091CC072091C9073091CA07B3
:1023C0008091C7079091C807E72FEF936F93652F10
:1023D0006F934F93432F4F932F93292F2F938F93C7
:1023E00088E491E0892F8F9388E491E08F9387EBC5
:1023F00097E0892F8F9387EB97E08F930E94A71226
:10240000EDB7FEB73C960FB6F894DEBF0FBECDBF5A
:102410006DE087EB97E00E941F0F8091B5079091C8
:10242000B60708969093B6078093B5078091B507D5
:102430009091B60780329E4408F4ACCF8CE0E6E57C
:10244000F1E0A7EBB7E001900D928A95E1F76DE01E
:1024500087EB97E00E941F0F1092B6071092B50706
:10246000000028960FB6F894DEBF0FBECDBFDF91F7
:10247000CF910895CF93DF93CDB7DEB729970FB6ED
:10248000F894DEBF0FBECDBF8F83798768871A822D
:1024900019821C821B820E94B60A9C838B838F81C7
:1024A000882371F189819A81892B51F58B819C81D7
:1024B0009093C8078093C7078F81882F90E00A9672
:1024C0009093CA078093C9078B819C8120E04AE0E2
:1024D0006F810E949A1014C00E94B60A9E838D8359
:1024E0002B813C818D819E812817390749F0898194
:1024F0009A8101969A8389838D819E819C838B83A7
:1025000029813A81888599852817390728F31A8205
:102510001982000029960FB6F894DEBF0FBECDBF1A
:10252000DF91CF910895CF93DF93CDB7DEB7F894C5
:102530000E94710F0E9453004DE060E180E090E046
:102540000E94C30E78940000DF91CF910895AEE011
:10255000B0E0EDEAF2E10C9468150D891E8986E081
:102560008C831A8309838FEF9FE79E838D83AE014F
:10257000475E5F4F6F89788DCE0101960E94C91228
:10258000EF81F885E00FF11F10822E96E4E00C94A5
:102590008415ABE0B0E0EFECF2E10C945A156C015D
:1025A0007B018A01FC0117821682838181FFCCC1E5
:1025B000CE0101963C01F6019381F70193FD8591CF
:1025C00093FF81917F01882309F4BAC1853239F4E0
:1025D00093FD859193FF81917F01853229F4B601A6
:1025E00090E00E94C014E7CF912C212C312CFFE108
:1025F000F315D8F08B3279F038F4803279F08332E9
:10260000A1F4232D20611DC08D3261F0803369F467
:10261000232D216016C0832D8260382EE32DE460C7
:102620003E2E2AC0F32DF8601DC037FC2DC020EDD2
:10263000280F2A3040F08E32B9F436FC81C1232DA8
:102640002064322E19C036FE06C08AE0989E200D06
:102650001124922E11C0EAE02E9E200D1124222E6C
:10266000F32DF0623F2E08C08C3621F4832D806854
:10267000382E02C0883641F4F70193FD859193FF0F
:1026800081917F018111B3CF982F9F7D9554933015
:1026900028F40C5F1F4F9FE399830DC0833631F000
:1026A000833771F0833509F059C021C0F80180816A
:1026B00089830E5F1F4F88248394912C530113C08C
:1026C0002801F2E04F0E511CF801A080B18036FEC7
:1026D00003C0692D70E002C06FEF7FEFC5010E945B
:1026E000B5144C018201F32DFF773F2E16C028014F
:1026F00022E0420E511CF801A080B18036FE03C0DA
:10270000692D70E002C06FEF7FEFC5010E94AA142F
:102710004C01F32DF0683F2E820133FC1BC0822D4B
:1027200090E088169906B0F4B60180E290E00E942D
:10273000C0142A94F4CFF50137FC859137FE8191BE
:102740005F01B60190E00E94C01421102A9421E09C
:10275000821A91088114910471F7E8C0843611F04F
:10276000893641F5F80137FE07C0608171818281A9
:1027700093810C5F1F4F08C060817181072E000C90
:10278000880B990B0E5F1F4FF32DFF763F2E97FF9F
:1027900009C090958095709561957F4F8F4F9F4FA1
:1027A000F0683F2E2AE030E0A3010E94FC14882E3E
:1027B000861845C0853731F4232D2F7EB22E2AE0AE
:1027C00030E025C0932D997FB92E8F36C1F018F4D3
:1027D000883579F0B5C0803719F0883721F0B0C05E
:1027E000E92FE061BE2EB4FE0DC0FB2DF460BF2EBC
:1027F00009C034FE0AC0292F2660B22E06C028E088
:1028000030E005C020E130E002C020E132E0F80114
:10281000B7FE07C060817181828193810C5F1F4F79
:1028200006C06081718180E090E00E5F1F4FA301C0
:102830000E94FC14882E8618FB2DFF773F2E36FE53
:102840000DC0232D2E7FA22E891458F434FE0BC008
:1028500032FC09C0832D8E7EA82E05C0B82CA32C77
:1028600003C0B82C01C0B92CA4FE0FC0FE01E80DB6
:10287000F11D8081803321F49A2D997EA92E09C003
:10288000A2FE06C0B394B39404C08A2D867809F0E2
:10289000B394A3FC11C0A0FE06C0B21488F4280CA7
:1028A000922C9B180EC0B21460F4B60180E290E046
:1028B0000E94C014B394F7CFB21418F42B1802C0BE
:1028C000982C212CA4FE10C0B60180E390E00E9459
:1028D000C014A2FE17C0A1FC03C088E790E002C0AC
:1028E00088E590E0B6010CC08A2D867859F0A1FEEB
:1028F00002C08BE201C080E2A7FC8DE2B60190E04D
:102900000E94C014891438F4B60180E390E00E945C
:10291000C0149A94F7CF8A94F301E80DF11D8081D9
:10292000B60190E00E94C0148110F5CF222009F476
:1029300042CEB60180E290E00E94C0142A94F6CF05
:10294000F6018681978102C08FEF9FEF2B96E2E11F
:102950000C947615FC010590615070400110D8F779
:10296000809590958E0F9F1F0895FC0161507040D7
:1029700001900110D8F7809590958E0F9F1F0895B4
:102980000F931F93CF93DF93FB01238121FD03C09E
:102990008FEF9FEF2CC022FF16C046815781248104
:1029A00035814217530744F4A081B1819D012F5F07
:1029B0003F4F318320838C93268137812F5F3F4F98
:1029C0003783268314C08B01EC01FB010084F18561
:1029D000E02D0995892BE1F6D80116968D919C91F1
:1029E0001797019617969C938E931697CE01DF91B9
:1029F000CF911F910F910895FA01AA27283051F124
:102A0000203181F1E8946F936E7F6E5F7F4F8F4F1F
:102A10009F4FAF4FB1E03ED0B4E03CD0670F781F7E
:102A2000891F9A1FA11D680F791F8A1F911DA11D63
:102A30006A0F711D811D911DA11D20D009F468949C
:102A40003F912AE0269F11243019305D3193DEF644
:102A5000CF010895462F4770405D4193B3E00FD0FA
:102A6000C9F7F6CF462F4F70405D4A3318F0495DE5
:102A700031FD4052419302D0A9F7EACFB4E0A695C8
:102A80009795879577956795BA95C9F700976105EA
:102A9000710508959B01AC010A2E06945795479540
:102AA00037952795BA95C9F7620F731F841F951F35
:102AB000A01D08952F923F924F925F926F927F9246
:102AC0008F929F92AF92BF92CF92DF92EF92FF923E
:102AD0000F931F93CF93DF93CDB7DEB7CA1BDB0BEA
:102AE0000FB6F894DEBF0FBECDBF09942A8839888F
:102AF00048885F846E847D848C849B84AA84B98496
:102B0000C884DF80EE80FD800C811B81AA81B981A1
:102B1000CE0FD11D0FB6F894DEBF0FBECDBFED01B5
:062B20000895F894FFCFB8
:102B2600DB05002C00035802580220036400500005
:102B36003C000302010449444C4500543100543220
:102B460000543300494E49542054524143450D0A1E
:102B56000025752030203020300D0A0025752025EF
:102B660075203020300D0A00257520257520257525
:102B76002025750D0A00454E442054524143450D0B
:022B86000A0043
:040000050080010274
:00000001FF
