S0140000546573744672656552544F532E73726563A6
S11300000C9434000C9451000C9451000C94510045
S11300100C9451000C9451000C9451000C94510018
S11300200C9451000C9451000C9451000C949D07B5
S11300300C9451000C9451000C9451000C945100F8
S11300400C9451000C9451000C94190E0C94510012
S11300500C9451000C9451000C9451000C945100D8
S11300600C9451000C94510011241FBECFEFD8E022
S1130070DEBFCDBF11E0A0E0B1E0E8E2FBE202C0E8
S113008005900D92A436B107D9F727E0A4E6B1E0B4
S113009001C01D92A93DB207E1F70E94580D0C94CE
S11300A092150C940000CF93DF93CDB7DEB784E2B2
S11300B090E024E230E0F90120812460FC012083F7
S11300C084E290E024E230E0F90120812260FC0126
S11300D0208384E290E024E230E0F9012081216071
S11300E0FC0120838AE290E02AE230E0F9012081D9
S11300F02068FC0120838AE290E02AE230E0F901E2
S113010020812062FC0120838AE290E02AE230E030
S1130110F90120812061FC01208387E290E027E23D
S113012030E0F90120812061FC01208387E290E026
S113013027E230E0F90120812860FC01208387E276
S113014090E027E230E0F90120812160FC01208366
S11301500000DF91CF910895CF93DF93CDB7DEB741
S113016088E290E028E230E0F90120812160FC017E
S113017020830000DF91CF910895CF93DF93CDB713
S1130180DEB788E290E028E230E0F90120812E7F9A
S1130190FC0120830000DF91CF910895CF93DF937A
S11301A000D01F92CDB7DEB78B830E94AC008B8149
S11301B0817089838BEF8A8385E290E025E230E0C9
S11301C0F90130812A812323422F2981222F30E013
S11301D0220F331F220F331F242BFC0120838B811A
S11301E08695817089838DEF8A8385E290E025E28C
S11301F030E0F90130812A812323422F2981222FE3
S113020030E0220F331F242BFC0120838B81869541
S11302108695817089838EEF8A8385E290E025E25A
S113022030E0F90130812A8132232981232BFC011A
S113023020838B81869586958695817089838FE747
S11302408A838BE290E02BE230E0F90130812A814D
S11302502323422F2981222F30E03695322F222763
S113026037952795242BFC0120838B8182958F70F1
S1130270817089838FED8A838BE290E02BE230E0FA
S1130280F90130812A812323422F2981222F30E052
S1130290220F331F22953295307F3227207F322759
S11302A0242BFC0120838B81829586958770817035
S11302B089838FEE8A838BE290E02BE230E0F901B0
S11302C030812A812323422F2981222F30E0229555
S11302D03295307F3227207F3227242BFC01208364
S11302E08B818295869586958370817089838FEE44
S11302F08A8388E290E028E230E0F90130812A81A3
S11303002323422F2981222F30E022953295307FFA
S11303103227207F3227242BFC0120838B81881FE6
S11303208827881F898387EF8A8388E290E028E200
S113033030E0F90130812A812323422F2981222FA1
S113034030E0220F331F220F331F220F331F242BC1
S1130350FC0120830E94BD0000000F900F900F90BD
S1130360DF91CF910895CF93DF9300D0CDB7DEB75F
S11303709A83898389819A819C012D5F3F4F89816A
S11303809A81FC013283218389819A812FEF3FEF87
S1130390FC013483238389819A819C012D5F3F4F23
S11303A089819A81FC013683258389819A819C0104
S11303B02D5F3F4F89819A81FC0130872783898192
S11303C09A81FC01108200000F900F90DF91CF9171
S11303D00895CF93DF9300D0CDB7DEB79A83898396
S11303E089819A81FC011186108600000F900F907C
S11303F0DF91CF910895CF93DF9300D000D000D048
S1130400CDB7DEB79C838B837E836D838B819C8188
S1130410FC01818192819A8389838D819E812981C6
S11304203A81FC013383228389819A81FC012481EE
S113043035818D819E81FC013583248389819A8154
S1130440FC01848195812D813E81FC0133832283CB
S113045089819A812D813E81FC01358324838D819C
S11304609E812B813C81FC01318720878B819C817B
S1130470FC01808121E0280F8B819C81FC01208379
S1130480000026960FB6F894DEBF0FBECDBFDF91F5
S1130490CF910895CF93DF93CDB7DEB728970FB6EA
S11304A0F894DEBF0FBECDBF9E838D8378876F83A4
S11304B08F819885FC01808191819C838B838B81C2
S11304C09C81019641F48D819E81FC0187819085F8
S11304D09A8389831AC08D819E8103969A83898326
S11304E007C089819A81FC01828193819A838983DF
S11304F089819A81FC0182819381FC01208131816F
S11305008B819C818217930760F789819A81FC0112
S1130510228133818F819885FC01338322838F81EB
S11305209885FC01828193812F813885FC01358374
S113053024838F81988529813A81FC013583248322
S113054089819A812F813885FC01338322838F81AD
S113055098852D813E81FC01318720878D819E8184
S1130560FC01808121E0280F8D819E81FC01208384
S1130570000028960FB6F894DEBF0FBECDBFDF9102
S1130580CF910895CF93DF9300D000D0CDB7DEB7DD
S11305909C838B838B819C81FC01808591859A83CC
S11305A089838B819C81FC01828193812B813C8195
S11305B0F90124813581FC01358324838B819C815D
S11305C0FC01848195812B813C81F9012281338155
S11305D0FC013383228389819A81FC012181328148
S11305E08B819C812817390751F48B819C81FC01F4
S11305F02481358189819A81FC01328321838B8115
S11306009C81FC011186108689819A81FC0180817C
S11306102FEF280F89819A81FC01208389819A8197
S1130620FC0180810F900F900F900F90DF91CF917C
S11306300895CF93DF93CDB7DEB72E970FB6F89416
S1130640DEBF0FBECDBF9E878D871E821D820E9496
S1130650120A80914807882329F40E947A0481E0D1
S1130660809348078D859E85892B41F084E090E036
S11306702D853E85820F931F9E878D878D859E8550
S1130680892B09F4B8C08D859E858B3D954008F073
S1130690B2C080E497E09C838B8380914007909163
S11306A041079A8389830BC089819A819C838B83B8
S11306B089819A81FC01808191819A8389838981CE
S11306C09A81FC01228133818D859E852817390703
S11306D038F489819A81FC0180819181892B21F7E9
S11306E089819A818454974009F485C08B819C81C7
S11306F0FC012081318184E090E0820F931F9E836E
S11307008D8389819A81FC01208131818B819C8137
S1130710FC013183208389819A81FC012281338108
S11307208D859E85281B390B84E090E0880F991FE6
S11307308217930708F04EC029813A818D859E85E2
S1130740820F931F9A87898789819A81FC0122816C
S113075033818D859E85281B390B89859A85FC01FB
S11307603383228389819A812D853E85FC013383DD
S1130770228389859A85FC01828193819C878B875A
S113078080E497E098878F8307C08F819885FC0168
S11307908081918198878F838F819885FC018081E6
S11307A09181FC01228133818B859C85281739072F
S11307B060F38F819885FC012081318189859A8538
S11307C0FC01318320838F81988529853A85FC013A
S11307D031832083209100013091010189819A8124
S11307E0FC0182819381A901481B590BCA01909392
S11307F00101809300010E941F0A8D819E812E9623
S11308000FB6F894DEBF0FBECDBFDF91CF91089530
S1130810CF93DF93CDB7DEB72A970FB6F894DEBF38
S11308200FBECDBF9A87898789859A859C838B83E0
S113083089859A85892B09F453C084E090E09195C9
S1130840819591092B813C81820F931F9C838B831B
S11308508B819C819E838D830E94120A8D819E814F
S1130860FC018281938198878F8380E497E09A8347
S1130870898307C089819A81FC01808191819A834F
S1130880898389819A81FC0180819181FC01228183
S113089033818F8198852817390760F389819A817C
S11308A0FC01208131818D819E81FC013183208373
S11308B089819A812D813E81FC01318320838D8140
S11308C09E81FC012281338180910001909101017C
S11308D0820F931F90930101809300010E941F0ACD
S11308E000002A960FB6F894DEBF0FBECDBFDF918D
S11308F0CF910895CF93DF9300D000D0CDB7DEB76A
S113090085E691E09A83898389819A81909341074E
S11309108093400710924307109242078BED95E0B5
S11309209093470780934607109245071092440717
S113093089819A819C838B838B819C812BED35E00B
S1130940FC01338322838B819C8124E437E0FC0106
S11309503183208300000F900F900F900F90DF9150
S1130960CF910895CF93DF93CDB7DEB728970FB615
S1130970F894DEBF0FBECDBF9C838B837E836D83D3
S113098058874F838B819C8121E1FC0120838B81DB
S11309909C8101979C838B838B819C8122E2FC0147
S11309A020838B819C8101979C838B838B819C8189
S11309B023E3FC0120838B819C8101979C838B839F
S11309C08D819E819A83898329818B819C81FC01FD
S11309D020838B819C8101979C838B8389819A815D
S11309E0892F99279A83898329818B819C81FC0192
S11309F020838B819C8101979C838B838B819C8139
S1130A00FC0110828B819C8101979C838B838B8159
S1130A109C8120E8FC0120838B819C8101979C832D
S1130A208B838B819C81FC0110828B819C8101973B
S1130A309C838B838B819C8122E0FC0120838B81AE
S1130A409C8101979C838B838B819C8123E0FC0197
S1130A5020838B819C8101979C838B838B819C81D8
S1130A6024E0FC0120838B819C8101979C838B83F0
S1130A708B819C8125E0FC0120838B819C810197E3
S1130A809C838B838B819C8126E0FC0120838B815A
S1130A909C8101979C838B838B819C8127E0FC0143
S1130AA020838B819C8101979C838B838B819C8188
S1130AB028E0FC0120838B819C8101979C838B839C
S1130AC08B819C8129E0FC0120838B819C8101978F
S1130AD09C838B838B819C8120E1FC0120838B810F
S1130AE09C8101979C838B838B819C8121E1FC01F8
S1130AF020838B819C8101979C838B838B819C8138
S1130B0022E1FC0120838B819C8101979C838B8350
S1130B108B819C8123E1FC0120838B819C81019743
S1130B209C838B838B819C8124E1FC0120838B81BA
S1130B309C8101979C838B838B819C8125E1FC01A3
S1130B4020838B819C8101979C838B838B819C81E7
S1130B5026E1FC0120838B819C8101979C838B83FC
S1130B608B819C8127E1FC0120838B819C810197EF
S1130B709C838B838B819C8128E1FC0120838B8166
S1130B809C8101979C838B838B819C8129E1FC014F
S1130B9020838B819C8101979C838B838B819C8197
S1130BA020E2FC0120838B819C8101979C838B83B1
S1130BB08B819C8121E2FC0120838B819C810197A4
S1130BC09C838B838B819C8122E2FC0120838B811B
S1130BD09C8101979C838B838B819C8123E2FC0104
S1130BE020838B819C8101979C838B838F81988543
S1130BF09A83898329818B819C81FC0120838B8149
S1130C009C8101979C838B8389819A81892F992761
S1130C109A83898329818B819C81FC0120838B8128
S1130C209C8101979C838B838B819C8126E2FC01B0
S1130C3020838B819C8101979C838B838B819C81F6
S1130C4027E2FC0120838B819C8101979C838B8309
S1130C508B819C8128E2FC0120838B819C810197FC
S1130C609C838B838B819C8129E2FC0120838B8173
S1130C709C8101979C838B838B819C8120E3FC0165
S1130C8020838B819C8101979C838B838B819C81A6
S1130C9021E3FC0120838B819C8101979C838B83BE
S1130CA08B819C8128960FB6F894DEBF0FBECDBF12
S1130CB0DF91CF910895CF93DF93CDB7DEB70E9434
S1130CC04607A0914907B0914A07CD91CDBFDD9168
S1130CD0DEBFFF91EF91DF91CF91BF91AF919F91D3
S1130CE08F917F916F915F914F913F912F911F91C0
S1130CF00F91FF90EF90DF90CF90BF90AF909F90B7
S1130D008F907F906F905F904F903F902F901F90A7
S1130D100F900FBE0F90089581E0DF91CF91089559
S1130D200F920FB6F8940F921F9211242F923F92B4
S1130D304F925F926F927F928F929F92AF92BF92E7
S1130D40CF92DF92EF92FF920F931F932F933F93D3
S1130D504F935F936F937F938F939F93AF93BF93BF
S1130D60CF93DF93EF93FF93A0914907B0914A0784
S1130D700DB60D920EB60D920E94EA0BA091490792
S1130D80B0914A07CD91CDBFDD91DEBFFF91EF91C8
S1130D90DF91CF91BF91AF919F918F917F916F918F
S1130DA05F914F913F912F911F910F91FF90EF9081
S1130DB0DF90CF90BF90AF909F908F907F906F9077
S1130DC05F904F903F902F901F900F900FBE0F9009
S1130DD0089500000F920FB6F8940F921F921124F9
S1130DE02F923F924F925F926F927F928F929F9237
S1130DF0AF92BF92CF92DF92EF92FF920F931F9325
S1130E002F933F934F935F936F937F938F939F930E
S1130E10AF93BF93CF93DF93EF93FF93A0914907D1
S1130E20B0914A070DB60D920EB60D920E94CD0AEE
S1130E300E94EA0BA0914907B0914A07CD91CDBF1A
S1130E40DD91DEBFFF91EF91DF91CF91BF91AF9123
S1130E509F918F917F916F915F914F913F912F91CE
S1130E601F910F91FF90EF90DF90CF90BF90AF90C4
S1130E709F908F907F906F905F904F903F902F90B6
S1130E801F900F900FBE0F9008950000CF93DF9333
S1130E9000D000D01F92CDB7DEB780E89EE3A0E07B
S1130EA0B0E089839A83AB83BC8389819A81AB81C7
S1130EB0BC81689415F8B695A7959795879516946F
S1130EC0D1F789839A83AB83BC8389819A81AB816F
S1130ED0BC810197A109B10989839A83AB83BC833F
S1130EE088E890E029813A81FC013183208380E8FD
S1130EF090E020E830E0F90120812C7FFC01208380
S1130F008BE08D8381E890E02D81FC0120838FE6C6
S1130F1090E0FC0180818D838D8182608D838FE6DA
S1130F2090E02D81FC01208300000F900F900F9022
S1130F300F900F90DF91CF9108950E94EA061895C3
S1130F4000008F929F92AF92BF92CF92DF92EF9266
S1130F50FF920F931F93CF93DF93CDB7DEB76097C4
S1130F600FB6F894DEBF0FBECDBF9F838E83798703
S1130F7068875B874A873D872C870E87F88AEF86C8
S1130F808A859B850E9419039D838C838C819D8116
S1130F90892BB9F084E290E00E9419039A83898333
S1130FA089819A81892B41F089819A812C813D81A3
S1130FB0FC01308F278B07C08C819D810E9408041F
S1130FC002C01A82198289819A81892B09F18A8542
S1130FD09B85CC01A0E0B0E009811A814F85588936
S1130FE02C853D8568857985EE81FF81812C912C46
S1130FF058016A01EE8489019C01AD01CF010E9470
S11310001E0889819A810E94E50881E08B8302C0D1
S11310108FEF8B838B8160960FB6F894DEBF0FBE83
S1131020CDBFDF91CF911F910F91FF90EF90DF9093
S1131030CF90BF90AF909F908F9008958F929F9282
S1131040AF92BF92CF92DF92EF920F931F93CF9301
S1131050DF93CDB7DEB764970FB6F894DEBF0FBE4B
S1131060CDBF9D838C837F836E83288739874A878E
S11310705B871D870C87EE86D88ACF86BA8AA98AB1
S11310809C8A8B8A89899A89FC012789308D888575
S113109099850197820F931F9B838A83198221C0AC
S11310A08981882F90E02981222F30E04E815F8151
S11310B0240F351FF901408129893A89820F931F32
S11310C04996FC0140838981882F90E02E813F81DD
S11310D0820F931FFC018081882339F089818F5FFF
S11310E0898389818430E0F201C0000089899A896A
S11310F0FC01148E8E85863010F085E08E878989F8
S11311009A892E85FC01268B89899A8902960E94E8
S1131110E90189899A890C960E94E90189899A8949
S113112029893A89FC01318720878E85882F90E0B0
S113113026E030E0281B390B89899A89FC01358720
S1131140248789899A8929893A89FC01338B228BDE
S113115089899A89FC01168E158E89899A89FC01E0
S1131160178E10A211A212A289899A89FC0113A2D6
S11311704C855D852C813D818A819B81B9010E94CA
S1131180B2049C0189899A89FC01318320838F856B
S11311909889892B39F08F85988929893A89FC01A6
S11311A031832083000064960FB6F894DEBF0FBE2F
S11311B0CDBFDF91CF911F910F91EF90DF90CF9032
S11311C0BF90AF909F908F900895CF93DF9300D0FE
S11311D0CDB7DEB79A8389830FB6F8940F928091C6
S11311E0A0078F5F8093A0078091490790914A07D9
S11311F0892B69F489819A8190934A0780934907DE
S11312008091A0078130C9F40E947F0C16C08091A0
S1131210A407882391F48091490790914A07FC011F
S1131220268989819A81FC018689821730F0898117
S11312309A8190934A07809349078091A8078F5F0A
S11312408093A80789819A81FC0196898091A307DC
S1131250891730F489819A81FC0186898093A307D8
S113126089819A81AC014E5F5F4F89819A81FC012B
S11312708689282F30E0C901880F991F880F991F8C
S1131280880F991F820F931F855B984FBA010E94A4
S1131290FB010F900FBE8091A407882371F0809109
S11312A0490790914A07FC01268989819A81FC01AA
S11312B08689281710F40E94900600000F900F9062
S11312C0DF91CF910895CF93DF93CDB7DEB72A97FF
S11312D00FB6F894DEBF0FBECDBF98878F837A8791
S11312E0698719820E94120A8091A1079091A2072E
S11312F09B838A838F819885FC0120813181898534
S11313009A85820F931F9D838C838F819885FC011E
S1131310208131818A819B8182179307A0F48F8178
S11313209885FC01208131818C819D8182179307EE
S1131330E8F42C813D818A819B8182179307B0F464
S113134081E0898313C08F819885FC0120813181DC
S11313508C819D818217930738F02C813D818A818D
S11313609B818217930710F481E089838F8198858C
S11313702C813D81FC01318320838981882359F0AC
S11313802C813D818A819B81A901481B590BCA018B
S113139060E00E94F00C0E941F0A8E838E818823D5
S11313A011F40E94900600002A960FB6F894DEBF4E
S11313B00FBECDBFDF91CF910895EF92FF920F93AF
S11313C0CF93DF931F92CDB7DEB70F2EFBEAEF2E3C
S11313D0F7E0FF2EF02D00E020E030E044EC50E098
S11313E068E171E08FE69CE00E94A107898389810E
S11313F0813081F4F8948FEF9FEF9093AA07809344
S1131400A90781E08093A4071092A2071092A10774
S11314100E945B0600000F90DF91CF910F91FF9027
S1131420EF900895CF93DF93CDB7DEB78091AD07EA
S11314308F5F8093AD070000DF91CF910895CF9324
S1131440DF9300D000D0CDB7DEB71A8219821B8299
S11314500FB6F8940F928091AD0781508093AD0739
S11314608091AD07882309F077C08091A007882375
S113147009F472C049C080919C0790919D07FC01BA
S1131480868197819A83898389819A810C960E94A7
S1131490C20289819A8102960E94C20289819A813C
S11314A0FC0196898091A307891730F489819A8178
S11314B0FC0186898093A30789819A81AC014E5FE0
S11314C05F4F89819A81FC018689282F30E0C90108
S11314D0880F991F880F991F880F991F820F931FD8
S11314E0855B984FBA010E94FB0189819A81FC01B6
S11314F026898091490790914A07FC01868928171B
S113150018F081E08093A60780919707882309F05B
S1131510B2CF89819A81892B11F00E94C10C8091EC
S1131520A5078C838C81882379F00E94CD0A8823B7
S113153019F081E08093A6078C8181508C838C8183
S1131540882399F71092A5078091A607882321F094
S113155081E08B830E9490060F900FBE8B810F90C9
S11315600F900F900F90DF91CF910895CF93DF9359
S113157000D0CDB7DEB70FB6F8940F928091A107D3
S11315809091A2079A8389830F900FBE89819A81D3
S11315900F900F90DF91CF910895CF93DF93CDB744
S11315A0DEB729970FB6F894DEBF0FBECDBF198200
S11315B08091AD07882309F0C8C08091A10790915C
S11315C0A20701969B838A838A819B819093A207B9
S11315D08093A1078A819B81892BD9F480919307F9
S11315E0909194079D838C838091950790919607A1
S11315F090939407809393078C819D819093960791
S1131600809395078091A7078F5F8093A7070E9417
S1131610C10C8091A9079091AA072A813B812817C0
S1131620390708F478C08091930790919407FC01DE
S11316308081882339F48FEF9FEF9093AA078093DA
S1131640A90769C08091930790919407FC01858153
S11316509681FC01868197819F838E838E819F81F1
S1131660FC0182819381998788872A813B818885BF
S113167099852817390738F4888599859093AA079E
S11316808093A90748C08E819F8102960E94C2025E
S11316908E819F81FC0184899589892B29F08E8113
S11316A09F810C960E94C2028E819F81FC019689C3
S11316B08091A307891730F48E819F81FC0186896C
S11316C08093A3078E819F81AC014E5F5F4F8E8113
S11316D09F81FC018689282F30E0C901880F991F5A
S11316E0880F991F880F991F820F931F855B984F4E
S11316F0BA010E94FB018E819F81FC0126898091A1
S1131700490790914A07FC018689281708F48BCF72
S113171081E0898388CF8091490790914A07FC0131
S11317208689282F30E0C901880F991F880F991FD7
S1131730880F991F820F931F855B984FFC0180814E
S1131740823040F081E0898305C08091A5078F5FD6
S11317508093A5078091A607882311F081E08983EF
S1131760898129960FB6F894DEBF0FBECDBFDF91F5
S1131770CF910895CF93DF9300D000D000D0CDB7A0
S1131780DEB79C838B837E836D838B819C81892BC5
S113179039F48091490790914A079A83898304C058
S11317A08B819C819A8389830FB6F8940F928981E7
S11317B09A812D813E81FC01368F258F0F900FBEBB
S11317C0000026960FB6F894DEBF0FBECDBFDF91A2
S11317D0CF9108951F93CF93DF9300D01F92CDB77D
S11317E0DEB78091AD07882321F081E08093A607BE
S11317F06EC01092A6078091A307898303C08981D4
S1131800815089838981282F30E0C901880F991F6D
S1131810880F991F880F991F820F931F855B984F1C
S1131820FC018081882359F38981282F30E0C90184
S1131830880F991F880F991F880F991F820F931F74
S1131840855B984F9B838A838A819B81FC0181817C
S11318509281FC01228133818A819B81FC01328344
S113186021838A819B81FC01218132818A819B8130
S113187003962817390769F48A819B81FC018181C9
S11318809281FC01228133818A819B81FC01328314
S113189021838A819B81FC0181819281FC01868163
S11318A0978190934A078093490789818093A3077E
S11318B08091490790914A07FC01858D968D182FD8
S11318C00E94B60A20E040E0612F0E949A100000B6
S11318D00F900F900F90DF91CF911F910895CF93A8
S11318E0DF9300D0CDB7DEB79A8389830E94B90C09
S11318F080914B078230D0F30E949006F7CFCF93AC
S1131900DF931F92CDB7DEB7198213C08981282FC8
S113191030E0C901880F991F880F991F880F991FFC
S1131920820F931F855B984F0E94B30189818F5F5B
S113193089838981863050F381E897E00E94B3015E
S11319408AE897E00E94B30187E997E00E94B30117
S113195081E897E090939407809393078AE897E04F
S1131960909396078093950700000F90DF91CF9195
S11319700895CF93DF93CDB7DEB70000DF91CF9109
S11319800895CF93DF9300D0CDB7DEB7809193074E
S113199090919407FC018081882339F48FEF9FEFA5
S11319A09093AA078093A90715C0809193079091FB
S11319B09407FC0185819681FC01868197819A8335
S11319C0898389819A81FC01828193819093AA07FA
S11319D08093A90700000F900F90DF91CF91089595
S11319E0CF93DF93CDB7DEB727970FB6F894DEBF5A
S11319F00FBECDBF9E838D836F838091A10790918D
S1131A00A2079A8389838091490790914A07029695
S1131A100E94C20229813A818D819E81820F931F87
S1131A209C838B838091490790914A072B813C8149
S1131A30FC01338322832B813C8189819A8128177D
S1131A40390778F48091490790914A079C012E5FE9
S1131A503F4F8091950790919607B9010E944A02E1
S1131A601DC08091490790914A079C012E5F3F4F0A
S1131A708091930790919407B9010E944A02809142
S1131A80A9079091AA072B813C812817390730F4C4
S1131A908B819C819093AA078093A90700002796C5
S1131AA00FB6F894DEBF0FBECDBFDF91CF9108957E
S1131AB0EF92FF920F93CF93DF93CDB7DEB70E94DF
S1131AC0941280911301E12CF12C082F20E030E0D6
S1131AD044EC50E06DE171E088E99DE00E94A107CB
S1131AE080911401E12CF12C082F20E030E044EC2B
S1131AF050E060E271E083EC9DE00E94A1078091D8
S1131B001501E12CF12C082F20E030E044EC50E0EA
S1131B1063E271E08EEE9DE00E94A1070E94DD0960
S1131B2080E090E0DF91CF910F91FF90EF900895C6
S1131B30CF93DF9300D000D0CDB7DEB79C838B83E7
S1131B4061E070E080E090E00E94BA0B1A82198292
S1131B508091AE079091AF07BC01CE0101960E941F
S1131B60630980910B0190910C01BC0181E00E94FA
S1131B703B128091030190910401BC01CE010196B6
S1131B800E946309EECFCF93DF9300D000D0CDB78E
S1131B90DEB79C838B8362E070E080E090E00E947B
S1131BA0BA0B1A8219828091B0079091B107BC01D7
S1131BB0CE0101960E94630980910D0190910E015E
S1131BC0BC0182E00E943B128091050190910601C4
S1131BD0BC01CE0101960E946309EECFCF93DF933F
S1131BE000D000D0CDB7DEB79C838B8363E070E078
S1131BF080E090E00E94BA0B1A8219828091B207A9
S1131C009091B307BC01CE0101960E9463098091B3
S1131C100F0190911001BC0183E00E943B1280915E
S1131C20070190910801BC01CE0101960E9463094D
S1131C30EECF1F920F9200905F000F9211242F930A
S1131C403F938F939F93EF93FF93CF93DF93CDB7FE
S1131C50DEB780EC90E0FC0180818C718093BD073D
S1131C6086EC90E0FC0180818093BE0781EC90E0DB
S1131C7021EC30E0F90120812F77FC012083789456
S1131C8080911701882F90E08130910561F18230B5
S1131C909105E1F1892B09F040C02091B6073091FC
S1131CA0B7078091B90791E0980F9093B907882FEF
S1131CB090E0820F931F2091BE07FC012083909136
S1131CC0BE078091BA07981721F482E08093170128
S1131CD021C09091B9078091B8079817D9F481E091
S1131CE08093170117C08091BB079091BC070196A0
S1131CF09093BC078093BB079091BE078091BA076D
S1131D00981751F482E08093170106C083E0809312
S1131D10170103C0000001C00000F89481EC90E0BA
S1131D2021EC30E0F90120812068FC0120830000CF
S1131D30DF91CF91FF91EF919F918F913F912F91DF
S1131D400F9000925F000F901F901895CF93DF9330
S1131D50CDB7DEB784E0809317018091B6079091E8
S1131D60B707892B61F01092B9071092BC07109243
S1131D70BB071092BD071092BE0710921701000016
S1131D80DF91CF910895CF93DF9300D000D01F92BD
S1131D90CDB7DEB79B838A836C834D838FE590E058
S1131DA0FC018081807889838981882309F0F894F3
S1131DB085EC90E0FC01108284EC90E029E1FC01C8
S1131DC0208380EC90E020EC30E0F90120812C7F2E
S1131DD0FC01208381EC90E028E9FC01208382EC63
S1131DE090E026E0FC01208309C01F93EF93FF934A
S1131DF0E6ECFF271081FF91EF911F9180EC90E0BA
S1131E00FC01808188238CF38A819B819093B7079E
S1131E108093B6078C818093B8078D818093BA072D
S1131E200E94A60E8981882309F0789400000F90FF
S1131E300F900F900F900F90DF91CF910895CF9353
S1131E40DF9300D000D01F92CDB7DEB79C838B8385
S1131E506D838B819C81892BD9F11A8219821CC0D4
S1131E60000080EC90E0FC018081882F90E080727B
S1131E709927892BB1F326EC30E089819A81AC0152
S1131E804F5F5F4F5A8349834B815C81840F951F59
S1131E90FC018081F90180832B813C8189819A81B5
S1131EA0820F931FFC0190818D819817C9F6000061
S1131EB080EC90E0FC018081882F90E0807299276B
S1131EC0892BB1F386EC90E02D81FC01208301C0C5
S1131ED000000F900F900F900F900F90DF91CF9113
S1131EE00895CF93DF93CDB7DEB784E290E024E288
S1131EF030E0F90120812F7EFC01208384E290E010
S1131F0024E230E0F90120812862FC0120838AE286
S1131F1090E02AE230E0F90120812860FC0120836E
S1131F2084E290E024E230E0F90120812460FC01A5
S1131F3020838BE290E02BE230E0F90120812860DD
S1131F40FC0120838CE490E02CE5FC0120838DE4EB
S1131F5090E02DE430E0F90120812160FC01208330
S1131F600000DF91CF910895AF92BF92CF92DF929C
S1131F70EF92FF92CF93DF9300D000D000D0CDB783
S1131F80DEB79A8389837C836B835E834D832D8143
S1131F908D819E81892F9927482F398189819A8142
S1131FA0892F9927582F8B819C81682F8B819C8145
S1131FB0892F9927A22EB42EC32ED52EE62EF82EC5
S1131FC02F93EF93FF93CF93DF93AF93BF93AA2DF8
S1131FD0BB2D0B2E0A2A09F1EDE4FF275B9822E0C2
S1131FE02EBD0D2C208127FBEEF72EB50EBC0C2C3C
S1131FF0208127FBEEF72EB50EBC208127FBEEF7E0
S11320002EB5CE2DDF2D09900EBC0990208127FB23
S1132010EEF72EB51197C1F75B9ABF91AF91DF919F
S1132020CF91FF91EF912F91000026960FB6F8946F
S1132030DEBF0FBECDBFDF91CF91FF90EF90DF9059
S1132040CF90BF90AF900895AF92BF92CF92DF929E
S1132050EF92FF92CF93DF9300D000D000D0CDB7A2
S1132060DEB79A8389837C836B835E834D832D8162
S11320708D819E81892F9927482F398189819A8161
S1132080892F9927582F8B819C81682F8B819C8164
S1132090892F9927A22EB42EC32ED52EE62EF82EE4
S11320A02F93EF93FF93CF93DF93AF93BF93AA2D17
S11320B0BB2D0A2E0B2A39F1EDE4FF275B9823E0B0
S11320C02EBD0D2C208127FBEEF72EB50EBC0C2C5B
S11320D0208127FBEEF72EB50EBC2FEF022E2081B8
S11320E027FBEEF72EB50EBCCE2DDF2D2FEF008093
S11320F007FAEEF70EB42EBD09921197C1F70080CE
S113210007FAEEF75B9ABF91AF91DF91CF91FF9100
S1132110EF912F91000026960FB6F894DEBF0FBE04
S1132120CDBFDF91CF91FF90EF90DF90CF90BF9024
S1132130AF900895CF93DF93CDB7DEB728970FB64E
S1132140F894DEBF0FBECDBF9D838C836E834F8317
S113215028878E810E94CE008C819D819093D20726
S11321608093D1078E81882F90E09093D407809339
S1132170D3078F81882F90E09093D6078093D5075B
S11321808885882F90E09093D8078093D707809113
S1132190BF079091C00748E050E061ED77E00E94EE
S11321A0B40F8091BF079091C00708969093C00721
S11321B08093BF078091BF079091C00781329E44EE
S11321C008F44FC18FE70E94CE001092C00710920E
S11321D0BF078DE0E6E2F1E0A1ECB7E001900D92DB
S11321E08A95E1F76DE081EC97E00E941F0F8091E2
S11321F00201882F90E0292F2F938F9383E391E09E
S1132200892F8F9383E391E08F9381EC97E0892F5B
S11322108F9381EC97E08F930E94A8120F900F90F8
S11322200F900F900F900F906DE081EC97E00E945B
S11322301F0F198234C08981882F90E0880F991F5D
S1132240855F9E4FFC01208131818981882F90E038
S11322500196432F4F932F93292F2F938F938EE320
S113226091E0892F8F938EE391E08F9381EC97E037
S1132270892F8F9381EC97E08F930E94A8128DB7DA
S11322809EB708960FB6F894DEBF0FBECDBF6DE0C3
S113229081EC97E00E941F0F89818F5F8983809171
S11322A002019981981738F21A8234C08A81882FE2
S11322B090E0880F991F8D5F9E4FFC012081318132
S11322C08A81882F90E00196432F4F932F93292FD3
S11322D02F938F938EE391E0892F8F938EE391E078
S11322E08F9381EC97E0892F8F9381EC97E08F9304
S11322F00E94A8128DB79EB708960FB6F894DEBF59
S11323000FBECDBF6DE081EC97E00E941F0F8A8164
S11323108F5F8A83809102019A81981738F21B8219
S113232034C08B81882F90E0880F991F8255984F75
S1132330FC01208131818B81882F90E00196432F0D
S11323404F932F93292F2F938F938EE391E0892F0F
S11323508F938EE391E08F9381EC97E0892F8F9395
S113236081EC97E08F930E94A8128DB79EB70896D0
S11323700FB6F894DEBF0FBECDBF6DE081EC97E0E1
S11323800E941F0F8B818F5F8B83809102019B8141
S1132390981738F24CC08091BF079091C00748E06D
S11323A050E061ED77E00E9424106091D7077091AE
S11323B0D8074091D5075091D6072091D307309183
S11323C0D4078091D1079091D207E72FEF936F93B1
S11323D0652F6F934F93432F4F932F93292F2F9351
S11323E08F938AE491E0892F8F938AE491E08F930D
S11323F081EC97E0892F8F9381EC97E08F930E9473
S1132400A812EDB7FEB73C960FB6F894DEBF0FBE28
S1132410CDBF6DE081EC97E00E941F0F8091BF0754
S11324209091C00708969093C0078093BF0780914E
S1132430BF079091C00780329E4408F4ACCF8CE073
S1132440E8E5F1E0A1ECB7E001900D928A95E1F79F
S11324506DE081EC97E00E941F0F1092C00710926C
S1132460BF07000028960FB6F894DEBF0FBECDBF9D
S1132470DF91CF910895CF93DF93CDB7DEB729973E
S11324800FB6F894DEBF0FBECDBF8F837987688700
S11324901A8219821C821B820E94B60A9C838B8337
S11324A08F81882371F189819A81892B51F58B81E0
S11324B09C819093D2078093D1078F81882F90E0DD
S11324C00A969093D4078093D3078B819C8120E054
S11324D04AE06F810E949A1014C00E94B60A9E833B
S11324E08D832B813C818D819E812817390749F08A
S11324F089819A8101969A8389838D819E819C83A7
S11325008B8329813A81888599852817390728F38F
S11325101A821982000029960FB6F894DEBF0FBE06
S1132520CDBFDF91CF910895CF93DF93CDB7DEB7C1
S1132530F8940E94710F0E9453004DE060E180E026
S113254090E00E94C30E78940000DF91CF9108952B
S1132550AEE0B0E0EEEAF2E10C9469150D891E8953
S113256086E08C831A8309838FEF9FE79E838D8394
S1132570AE01475E5F4F6F89788DCE0101960E9450
S1132580CA12EF81F885E00FF11F10822E96E4E065
S11325900C948515ABE0B0E0E0EDF2E10C945B1532
S11325A06C017B018A01FC0117821682838181FF01
S11325B0CCC1CE0101963C01F6019381F70193FD54
S11325C0859193FF81917F01882309F4BAC18532F3
S11325D039F493FD859193FF81917F01853229F42C
S11325E0B60190E00E94C114E7CF912C212C312C2C
S11325F0FFE1F315D8F08B3279F038F4803279F0BA
S11326008332A1F4232D20611DC08D3261F080330B
S113261069F4232D216016C0832D8260382EE32DAA
S1132620E4603E2E2AC0F32DF8601DC037FC2DC097
S113263020ED280F2A3040F08E32B9F436FC81C1E7
S1132640232D2064322E19C036FE06C08AE0989EDF
S1132650200D1124922E11C0EAE02E9E200D11248B
S1132660222EF32DF0623F2E08C08C3621F4832DE8
S11326708068382E02C0883641F4F70193FD8591B5
S113268093FF81917F018111B3CF982F9F7D955442
S1132690933028F40C5F1F4F9FE399830DC083365A
S11326A031F0833771F0833509F059C021C0F80146
S11326B0808189830E5F1F4F88248394912C53015A
S11326C013C02801F2E04F0E511CF801A080B18024
S11326D036FE03C0692D70E002C06FEF7FEFC501C5
S11326E00E94B6144C018201F32DFF773F2E16C0D1
S11326F0280122E0420E511CF801A080B18036FE70
S113270003C0692D70E002C06FEF7FEFC5010E9426
S1132710AB144C01F32DF0683F2E820133FC1BC037
S1132720822D90E088169906B0F4B60180E290E01C
S11327300E94C1142A94F4CFF50137FC859137FE29
S113274081915F01B60190E00E94C11421102A9486
S113275021E0821A91088114910471F7E8C084364B
S113276011F0893641F5F80137FE07C060817181A7
S1132770828193810C5F1F4F08C060817181072E95
S1132780000C880B990B0E5F1F4FF32DFF763F2E25
S113279097FF09C090958095709561957F4F8F4FF5
S11327A09F4FF0683F2E2AE030E0A3010E94FD1401
S11327B0882E861845C0853731F4232D2F7EB22EFE
S11327C02AE030E025C0932D997FB92E8F36C1F0D1
S11327D018F4883579F0B5C0803719F0883721F0BE
S11327E0B0C0E92FE061BE2EB4FE0DC0FB2DF46035
S11327F0BF2E09C034FE0AC0292F2660B22E06C09F
S113280028E030E005C020E130E002C020E132E001
S1132810F801B7FE07C060817181828193810C5FEA
S11328201F4F06C06081718180E090E00E5F1F4FF2
S1132830A3010E94FD14882E8618FB2DFF773F2EDE
S113284036FE0DC0232D2E7FA22E891458F434FE9B
S11328500BC032FC09C0832D8E7EA82E05C0B82C77
S1132860A32C03C0B82C01C0B92CA4FE0FC0FE01D8
S1132870E80DF11D8081803321F49A2D997EA92ED3
S113288009C0A2FE06C0B394B39404C08A2D86780E
S113289009F0B394A3FC11C0A0FE06C0B21488F4DE
S11328A0280C922C9B180EC0B21460F4B60180E27E
S11328B090E00E94C114B394F7CFB21418F42B180B
S11328C002C0982C212CA4FE10C0B60180E390E035
S11328D00E94C114A2FE17C0A1FC03C088E790E0C7
S11328E002C088E590E0B6010CC08A2D867859F0C4
S11328F0A1FE02C08BE201C080E2A7FC8DE2B6011A
S113290090E00E94C114891438F4B60180E390E089
S11329100E94C1149A94F7CF8A94F301E80DF11D33
S11329208081B60190E00E94C1148110F5CF22206D
S113293009F442CEB60180E290E00E94C1142A94C8
S1132940F6CFF6018681978102C08FEF9FEF2B9619
S1132950E2E10C947715FC01059061507040011080
S1132960D8F7809590958E0F9F1F0895FC016150B4
S1132970704001900110D8F7809590958E0F9F1F9D
S113298008950F931F93CF93DF93FB01238121FDC0
S113299003C08FEF9FEF2CC022FF16C046815781E2
S11329A0248135814217530744F4A081B1819D01EC
S11329B02F5F3F4F318320838C93268137812F5F94
S11329C03F4F3783268314C08B01EC01FB01008445
S11329D0F185E02D0995892BE1F6D80116968D91A4
S11329E09C911797019617969C938E931697CE01F8
S11329F0DF91CF911F910F910895FA01AA272830F2
S1132A0051F1203181F1E8946F936E7F6E5F7F4FB7
S1132A108F4F9F4FAF4FB1E03ED0B4E03CD0670F33
S1132A20781F891F9A1FA11D680F791F8A1F911D86
S1132A30A11D6A0F711D811D911DA11D20D009F4D6
S1132A4068943F912AE0269F11243019305D319318
S1132A50DEF6CF010895462F4770405D4193B3E001
S1132A600FD0C9F7F6CF462F4F70405D4A3318F0A8
S1132A70495D31FD4052419302D0A9F7EACFB4E059
S1132A80A6959795879577956795BA95C9F7009711
S1132A906105710508959B01AC010A2E06945795B2
S1132AA0479537952795BA95C9F7620F731F841F09
S1132AB0951FA01D08952F923F924F925F926F929F
S1132AC07F928F929F92AF92BF92CF92DF92EF92BA
S1132AD0FF920F931F93CF93DF93CDB7DEB7CA1B3B
S1132AE0DB0B0FB6F894DEBF0FBECDBF09942A8866
S1132AF0398848885F846E847D848C849B84AA840E
S1132B00B984C884DF80EE80FD800C811B81AA819A
S1132B10B981CE0FD11D0FB6F894DEBF0FBECDBF65
S10B2B20ED010895F894FFCFC4
S1132B28DB05042003580258025802C80064003226
S1132B38003200010203030449444C4500543100A7
S1132B48543200543300494E4954205452414345A9
S1132B580D0A0025752030203020300D0A00257517
S1132B68202575203020300D0A0025752025752074
S1132B7825752025750D0A00454E442054524143BD
S1072B88450D0A00E9
S90307AE47
