S01100005072616374696361352E73726563B7
S11300000C9434000C94B5000C9451000C94D10061
S11300100C9451000C9451000C9451000C94510018
S11300200C9451000C9451000C9451000C94510008
S11300300C9451000C9451000C94BF000C9451008A
S11300400C9451000C9451000C9451000C945100E8
S11300500C9451000C9451000C9451000C945100D8
S11300600C9451000C94510011241FBECFEFD8E022
S1130070DEBFCDBF11E0A0E0B1E0EEE1F3E002C0ED
S113008005900D92A230B107D9F721E0A2E0B1E0CA
S113009001C01D92A530B207E1F70E9478010C94CB
S11300A08D010C94000095B191FB662760F970E016
S11300B0660F771F95B192FB442740F950E0440F37
S11300C0551F440F551F462B982F9170492B45B946
S11300D09BB194FB222720F930E0A9014295529567
S11300E0507F5427407F5427982F9470292F30E055
S11300F03595279535952795220F331F22953295EF
S1130100307F3227207F3227827090E09595879543
S11301109695982F882797958795242B822B8BB9B2
S1130120089584B1856084B987B1886187B98AB13B
S1130130806A8AB9089582E084BD85E087BD82E83B
S1130140809380008AE1809381008CE9809387000A
S113015080E48093860087E08093890080ED80931B
S1130160880084B1826084B908951F920F920FB6FB
S11301700F9211240F900FBE0F901F9018951F928D
S11301800F920FB60F9211248F932A9902C084E024
S113019001C080E085B98F910F900FBE0F901F9022
S11301A018951F920F920FB60F9211242F933F931D
S11301B04F935F936F937F938F939F93AF93BF936B
S11301C0EF93FF931B9B3DC0809100018823C1F0F6
S11301D0809102018730A0F41092000181E08093A5
S11301E0040188B1877E88B987E085BD82E0809369
S11301F06E008BE08093890088EB809388005FC059
S113020080910301882309F45AC081E0809300019E
S11302101092030188E188B915BC10926E0016BCD7
S113022085B18B7F85B987E08093890080ED8093C9
S11302308800809102018150809302010E94530042
S11302403EC01C9B3CC0809100018823C1F080917A
S113025002018823A1F01092000181E08093030140
S113026088B1877E88B987E085BD82E080936E007F
S11302708BE08093890088EB8093880020C0809174
S113028004018823E1F081E08093000110920401CD
S113029088B1886188B915BC10926E0016BC85B10E
S11302A08B7F85B98BE08093890088EB80938800ED
S11302B0809102018F5F809302010E94530080E0CD
S11302C090E001C0019681152DE79207DCF3FF91C0
S11302D0EF91BF91AF919F918F917F916F915F91BA
S11302E04F913F912F910F900FBE0F901F90189533
S11302F0F89481E08DBB92E0909369001CBA8093DE
S1130300680088E180936B000E9491000E949B002A
S1110310789488B1886188B9FFCFF894FFCF44
S105031E0100D8
S9030000FC
