S01100005072616374696361352E73726563B7
S11300000C9434000C94A6000C9446000C94C2008A
S11300100C9446000C9446000C9446000C94460044
S11300200C9446000C9446000C9446000C94460034
S11300300C9446000C9446000C94B0000C944600BA
S11300400C9446000C9446000C9446000C94460014
S11300500C9446000C9446000C9446000C94460004
S11300600C9446000C94460011241FBECFEFD8E038
S1130070DEBFCDBF21E0A0E0B1E001C01D92A13000
S1130080B207E1F70E94EE000C9403010C94000007
S113009095B191FB662760F970E0660F771F95B103
S11300A092FB442740F950E0440F551F440F551F5D
S11300B0462B982F9170492B45B99BB194FB22276D
S11300C020F930E0A90142955295507F5427407F92
S11300D05427982F9470292F30E03595279535951E
S11300E02795220F331F22953295307F3227207FA8
S11300F03227827090E0959587959695982F88275A
S113010097958795242B822B8BB9089584B18560AC
S113011084B987B1886187B98AB1806A8AB9089538
S113012082E8809380008AE18093810082E080935A
S11301306F008CE98093870080E48093860087E0D9
S11301408093890080ED8093880008951F920F9218
S11301500FB60F9211240F900FBE0F901F90189599
S11301601F920F920FB60F9211248F932A9902C0F7
S113017084E001C080E085B98F910F900FBE0F908D
S11301801F9018951F920F920FB60F9211242F9360
S11301903F934F935F936F937F938F939F93AF930B
S11301A0BF93EF93FF9388B1877E88B98091000154
S11301B08F5F809300010E944800FF91EF91BF91EF
S11301C0AF919F918F917F916F915F914F913F91EB
S11301D02F910F900FBE0F901F901895F89481E007
S11301E08DBB92E0909369001CBA8093680088E10B
S11301F080936B000E9486000E949000789488B1DE
S10D0200886188B9FFCFF894FFCF9E
S9030000FC
