:100000000C9434000C9471000C9446000C949A00EB
:100010000C9446000C9446000C9446000C94460048
:100020000C9446000C9446000C9446000C94460038
:100030000C9446000C9446000C9490000C944600DE
:100040000C9446000C9446000C9446000C94460018
:100050000C9446000C9446000C9446000C94460008
:100060000C9446000C94460011241FBECFEFD8E03C
:10007000DEBFCDBF21E0A0E0B1E001C01D92A23003
:10008000B207E1F70E94B2000C94C4000C94000087
:1000900084B1856084B987B1886187B98AB1806A83
:1000A0008AB9089582E084BD97E095BD80936E0083
:1000B00024E627BD22E8209380002AE120938100D6
:1000C00080936F008CE98093870080E480938600A2
:1000D0009093890080ED8093880084B1826084B918
:1000E00008951F920F920FB60F9211248F939F9332
:1000F0008091000190910101019729F41092010172
:100100001092000106C081E090E09093010180937D
:1001100000019F918F910F900FBE0F901F90189527
:100120001F920F920FB60F9211240F900FBE0F90D7
:100130001F9018951F920F920FB60F9211248F9354
:100140009F938091000190910101019711F415B8DE
:1001500002C084E085B99F918F910F900FBE0F90E0
:100160001F901895F89481E08DBB92E09093690000
:100170001CBA8093680088E180936B000E9448005D
:0C0180000E9452007894FFCFF894FFCF4B
:00000001FF
