S0140000546573744672656552544F532E73726563A6
S11300000C9434000C9451000C9451000C94510045
S11300100C9451000C9451000C9451000C94510018
S11300200C9451000C9451000C9451000C949D07B5
S11300300C9451000C9451000C9451000C945100F8
S11300400C9451000C9451000C94A1160C94510082
S11300500C9451000C9451000C9451000C945100D8
S11300600C9451000C94510011241FBECFEFD8E022
S1130070DEBFCDBF11E0A0E0B1E0E4ECFEE302C0DE
S113008005900D92A036B107D9F727E0A0E6B1E0BC
S113009001C01D92A93CB207E1F70E949E130C9483
S11300A0601F0C940000CF93DF93CDB7DEB784E2DA
S11300B090E024E230E0F90120812460FC012083F7
S11300C084E290E024E230E0F90120812260FC0126
S11300D0208384E290E024E230E0F9012081216071
S11300E0FC0120838AE290E02AE230E0F9012081D9
S11300F02068FC0120838AE290E02AE230E0F901E2
S113010020812062FC0120838AE290E02AE230E030
S1130110F90120812061FC01208387E290E027E23D
S113012030E0F90120812061FC01208387E290E026
S113013027E230E0F90120812860FC01208387E276
S113014090E027E230E0F90120812160FC01208366
S11301500000DF91CF910895CF93DF93CDB7DEB741
S113016088E290E028E230E0F90120812160FC017E
S113017020830000DF91CF910895CF93DF93CDB713
S1130180DEB788E290E028E230E0F90120812E7F9A
S1130190FC0120830000DF91CF910895CF93DF937A
S11301A000D01F92CDB7DEB78B830E94AC008B8149
S11301B0817089838BEF8A8385E290E025E230E0C9
S11301C0F90130812A812323422F2981222F30E013
S11301D0220F331F220F331F242BFC0120838B811A
S11301E08695817089838DEF8A8385E290E025E28C
S11301F030E0F90130812A812323422F2981222FE3
S113020030E0220F331F242BFC0120838B81869541
S11302108695817089838EEF8A8385E290E025E25A
S113022030E0F90130812A8132232981232BFC011A
S113023020838B81869586958695817089838FE747
S11302408A838BE290E02BE230E0F90130812A814D
S11302502323422F2981222F30E03695322F222763
S113026037952795242BFC0120838B8182958F70F1
S1130270817089838FED8A838BE290E02BE230E0FA
S1130280F90130812A812323422F2981222F30E052
S1130290220F331F22953295307F3227207F322759
S11302A0242BFC0120838B81829586958770817035
S11302B089838FEE8A838BE290E02BE230E0F901B0
S11302C030812A812323422F2981222F30E0229555
S11302D03295307F3227207F3227242BFC01208364
S11302E08B818295869586958370817089838FEE44
S11302F08A8388E290E028E230E0F90130812A81A3
S11303002323422F2981222F30E022953295307FFA
S11303103227207F3227242BFC0120838B81881FE6
S11303208827881F898387EF8A8388E290E028E200
S113033030E0F90130812A812323422F2981222FA1
S113034030E0220F331F220F331F220F331F242BC1
S1130350FC0120830E94BD0000000F900F900F90BD
S1130360DF91CF910895CF93DF9300D0CDB7DEB75F
S11303709A83898389819A819C012D5F3F4F89816A
S11303809A81FC013283218389819A812FEF3FEF87
S1130390FC013483238389819A819C012D5F3F4F23
S11303A089819A81FC013683258389819A819C0104
S11303B02D5F3F4F89819A81FC0130872783898192
S11303C09A81FC01108200000F900F90DF91CF9171
S11303D00895CF93DF9300D0CDB7DEB79A83898396
S11303E089819A81FC011186108600000F900F907C
S11303F0DF91CF910895CF93DF9300D000D000D048
S1130400CDB7DEB79C838B837E836D838B819C8188
S1130410FC01818192819A8389838D819E812981C6
S11304203A81FC013383228389819A81FC012481EE
S113043035818D819E81FC013583248389819A8154
S1130440FC01848195812D813E81FC0133832283CB
S113045089819A812D813E81FC01358324838D819C
S11304609E812B813C81FC01318720878B819C817B
S1130470FC01808121E0280F8B819C81FC01208379
S1130480000026960FB6F894DEBF0FBECDBFDF91F5
S1130490CF910895CF93DF93CDB7DEB728970FB6EA
S11304A0F894DEBF0FBECDBF9E838D8378876F83A4
S11304B08F819885FC01808191819C838B838B81C2
S11304C09C81019641F48D819E81FC0187819085F8
S11304D09A8389831AC08D819E8103969A83898326
S11304E007C089819A81FC01828193819A838983DF
S11304F089819A81FC0182819381FC01208131816F
S11305008B819C818217930760F789819A81FC0112
S1130510228133818F819885FC01338322838F81EB
S11305209885FC01828193812F813885FC01358374
S113053024838F81988529813A81FC013583248322
S113054089819A812F813885FC01338322838F81AD
S113055098852D813E81FC01318720878D819E8184
S1130560FC01808121E0280F8D819E81FC01208384
S1130570000028960FB6F894DEBF0FBECDBFDF9102
S1130580CF910895CF93DF9300D000D0CDB7DEB7DD
S11305909C838B838B819C81FC01808591859A83CC
S11305A089838B819C81FC01828193812B813C8195
S11305B0F90124813581FC01358324838B819C815D
S11305C0FC01848195812B813C81F9012281338155
S11305D0FC013383228389819A81FC012181328148
S11305E08B819C812817390751F48B819C81FC01F4
S11305F02481358189819A81FC01328321838B8115
S11306009C81FC011186108689819A81FC0180817C
S11306102FEF280F89819A81FC01208389819A8197
S1130620FC0180810F900F900F900F90DF91CF917C
S11306300895CF93DF93CDB7DEB72E970FB6F89416
S1130640DEBF0FBECDBF9E878D871E821D820E9496
S1130650390F80914407882329F40E947A0481E0A9
S1130660809344078D859E85892B41F084E090E03A
S11306702D853E85820F931F9E878D878D859E8550
S1130680892B09F4B8C08D859E858B3D954008F073
S1130690B2C08CE397E09C838B8380913C0790915C
S11306A03D079A8389830BC089819A819C838B83BC
S11306B089819A81FC01808191819A8389838981CE
S11306C09A81FC01228133818D859E852817390703
S11306D038F489819A81FC0180819181892B21F7E9
S11306E089819A818054974009F485C08B819C81CB
S11306F0FC012081318184E090E0820F931F9E836E
S11307008D8389819A81FC01208131818B819C8137
S1130710FC013183208389819A81FC012281338108
S11307208D859E85281B390B84E090E0880F991FE6
S11307308217930708F04EC029813A818D859E85E2
S1130740820F931F9A87898789819A81FC0122816C
S113075033818D859E85281B390B89859A85FC01FB
S11307603383228389819A812D853E85FC013383DD
S1130770228389859A85FC01828193819C878B875A
S11307808CE397E098878F8307C08F819885FC015D
S11307908081918198878F838F819885FC018081E6
S11307A09181FC01228133818B859C85281739072F
S11307B060F38F819885FC012081318189859A8538
S11307C0FC01318320838F81988529853A85FC013A
S11307D031832083209100013091010189819A8124
S11307E0FC0182819381A901481B590BCA01909392
S11307F00101809300010E94460F8D819E812E96F7
S11308000FB6F894DEBF0FBECDBFDF91CF91089530
S1130810CF93DF93CDB7DEB72A970FB6F894DEBF38
S11308200FBECDBF9A87898789859A859C838B83E0
S113083089859A85892B09F453C084E090E09195C9
S1130840819591092B813C81820F931F9C838B831B
S11308508B819C819E838D830E94390F8D819E8123
S1130860FC018281938198878F838CE397E09A833C
S1130870898307C089819A81FC01808191819A834F
S1130880898389819A81FC0180819181FC01228183
S113089033818F8198852817390760F389819A817C
S11308A0FC01208131818D819E81FC013183208373
S11308B089819A812D813E81FC01318320838D8140
S11308C09E81FC012281338180910001909101017C
S11308D0820F931F90930101809300010E94460FA1
S11308E000002A960FB6F894DEBF0FBECDBFDF918D
S11308F0CF910895CF93DF9300D000D0CDB7DEB76A
S113090081E691E09A83898389819A8190933D0756
S113091080933C0710923F0710923E078BED95E0C1
S11309209093430780934207109241071092400727
S113093089819A819C838B838B819C812BED35E00B
S1130940FC01338322838B819C8120E437E0FC010A
S11309503183208300000F900F900F900F90DF9150
S1130960CF910895CF93DF93CDB7DEB728970FB615
S1130970F894DEBF0FBECDBF9C838B837E836D83D3
S113098058874F838B819C8121E1FC0120838B81DB
S11309909C8101979C838B838B819C8122E2FC0147
S11309A020838B819C8101979C838B838B819C8189
S11309B023E3FC0120838B819C8101979C838B839F
S11309C08D819E819A83898329818B819C81FC01FD
S11309D020838B819C8101979C838B8389819A815D
S11309E0892F99279A83898329818B819C81FC0192
S11309F020838B819C8101979C838B838B819C8139
S1130A00FC0110828B819C8101979C838B838B8159
S1130A109C8120E8FC0120838B819C8101979C832D
S1130A208B838B819C81FC0110828B819C8101973B
S1130A309C838B838B819C8122E0FC0120838B81AE
S1130A409C8101979C838B838B819C8123E0FC0197
S1130A5020838B819C8101979C838B838B819C81D8
S1130A6024E0FC0120838B819C8101979C838B83F0
S1130A708B819C8125E0FC0120838B819C810197E3
S1130A809C838B838B819C8126E0FC0120838B815A
S1130A909C8101979C838B838B819C8127E0FC0143
S1130AA020838B819C8101979C838B838B819C8188
S1130AB028E0FC0120838B819C8101979C838B839C
S1130AC08B819C8129E0FC0120838B819C8101978F
S1130AD09C838B838B819C8120E1FC0120838B810F
S1130AE09C8101979C838B838B819C8121E1FC01F8
S1130AF020838B819C8101979C838B838B819C8138
S1130B0022E1FC0120838B819C8101979C838B8350
S1130B108B819C8123E1FC0120838B819C81019743
S1130B209C838B838B819C8124E1FC0120838B81BA
S1130B309C8101979C838B838B819C8125E1FC01A3
S1130B4020838B819C8101979C838B838B819C81E7
S1130B5026E1FC0120838B819C8101979C838B83FC
S1130B608B819C8127E1FC0120838B819C810197EF
S1130B709C838B838B819C8128E1FC0120838B8166
S1130B809C8101979C838B838B819C8129E1FC014F
S1130B9020838B819C8101979C838B838B819C8197
S1130BA020E2FC0120838B819C8101979C838B83B1
S1130BB08B819C8121E2FC0120838B819C810197A4
S1130BC09C838B838B819C8122E2FC0120838B811B
S1130BD09C8101979C838B838B819C8123E2FC0104
S1130BE020838B819C8101979C838B838F81988543
S1130BF09A83898329818B819C81FC0120838B8149
S1130C009C8101979C838B8389819A81892F992761
S1130C109A83898329818B819C81FC0120838B8128
S1130C209C8101979C838B838B819C8126E2FC01B0
S1130C3020838B819C8101979C838B838B819C81F6
S1130C4027E2FC0120838B819C8101979C838B8309
S1130C508B819C8128E2FC0120838B819C810197FC
S1130C609C838B838B819C8129E2FC0120838B8173
S1130C709C8101979C838B838B819C8120E3FC0165
S1130C8020838B819C8101979C838B838B819C81A6
S1130C9021E3FC0120838B819C8101979C838B83BE
S1130CA08B819C8128960FB6F894DEBF0FBECDBF12
S1130CB0DF91CF910895CF93DF93CDB7DEB70E9434
S1130CC04607A0914507B0914607CD91CDBFDD9170
S1130CD0DEBFFF91EF91DF91CF91BF91AF919F91D3
S1130CE08F917F916F915F914F913F912F911F91C0
S1130CF00F91FF90EF90DF90CF90BF90AF909F90B7
S1130D008F907F906F905F904F903F902F901F90A7
S1130D100F900FBE0F90089581E0DF91CF91089559
S1130D200F920FB6F8940F921F9211242F923F92B4
S1130D304F925F926F927F928F929F92AF92BF92E7
S1130D40CF92DF92EF92FF920F931F932F933F93D3
S1130D504F935F936F937F938F939F93AF93BF93BF
S1130D60CF93DF93EF93FF93A0914507B09146078C
S1130D700DB60D920EB60D920E941111A091450769
S1130D80B0914607CD91CDBFDD91DEBFFF91EF91CC
S1130D90DF91CF91BF91AF919F918F917F916F918F
S1130DA05F914F913F912F911F910F91FF90EF9081
S1130DB0DF90CF90BF90AF909F908F907F906F9077
S1130DC05F904F903F902F901F900F900FBE0F9009
S1130DD0089500000F920FB6F8940F921F921124F9
S1130DE02F923F924F925F926F927F928F929F9237
S1130DF0AF92BF92CF92DF92EF92FF920F931F9325
S1130E002F933F934F935F936F937F938F939F930E
S1130E10AF93BF93CF93DF93EF93FF93A0914507D5
S1130E20B09146070DB60D920EB60D920E94F40FC6
S1130E300E941111A0914507B0914607CD91CDBFF5
S1130E40DD91DEBFFF91EF91DF91CF91BF91AF9123
S1130E509F918F917F916F915F914F913F912F91CE
S1130E601F910F91FF90EF90DF90CF90BF90AF90C4
S1130E709F908F907F906F905F904F903F902F90B6
S1130E801F900F900FBE0F9008950000CF93DF9333
S1130E9000D000D01F92CDB7DEB780E89EE3A0E07B
S1130EA0B0E089839A83AB83BC8389819A81AB81C7
S1130EB0BC81689415F8B695A7959795879516946F
S1130EC0D1F789839A83AB83BC8389819A81AB816F
S1130ED0BC810197A109B10989839A83AB83BC833F
S1130EE088E890E029813A81FC013183208380E8FD
S1130EF090E020E830E0F90120812C7FFC01208380
S1130F008BE08D8381E890E02D81FC0120838FE6C6
S1130F1090E0FC0180818D838D8182608D838FE6DA
S1130F2090E02D81FC01208300000F900F900F9022
S1130F300F900F90DF91CF9108950E94EA061895C3
S1130F400000CF93DF9300D000D01F92CDB7DEB75F
S1130F509C838B836D838B819C819A8389830FB659
S1130F60F8940F9289819A81FC0180819181298171
S1130F703A81F901238D422F50E029813A81F90108
S1130F80248D222F30E0429FB001439F700D529F69
S1130F90700D11249B01280F391F89819A81FC014E
S1130FA03383228389819A81FC01128E89819A81FB
S1130FB0FC012081318189819A81FC01358324835C
S1130FC089819A81FC018081918129813A81F90189
S1130FD0238D222F30E0A9014150510929813A8102
S1130FE0F901248D222F30E0429FB001439F700D00
S1130FF0529F700D11249B01280F391F89819A81FA
S1131000FC013783268389819A812FEFFC01258F88
S113101089819A812FEFFC01268F8D81882381F4A9
S113102089819A81FC0180858823A1F089819A8134
S113103008960E94B911882369F00E9490060AC09C
S113104089819A8108960E94B30189819A81419687
S11310500E94B3010F900FBE81E00F900F900F908C
S11310600F900F90DF91CF9108950F931F93CF931B
S1131070DF93CDB7DEB729970FB6F894DEBF0FBE66
S1131080CDBF8F83688749878885882319F41A829E
S113109019820FC08F81482F50E08885282F30E0B7
S11310A0429FC001439F900D529F900D11249A833B
S11310B0898389819A8181960E9419039C838B83F9
S11310C08B819C81892B81F08B819C8181969E836D
S11310D08D832B813C818D819E8189012985AC0181
S11310E068858F810E9481088B819C8129960FB627
S11310F0F894DEBF0FBECDBFDF91CF911F910F914A
S113110008950F931F93CF93DF93CDB7DEB727973F
S11311100FB6F894DEBF0FBECDBF89836A835C83AC
S11311204B832D831F830E838A81882341F48E8110
S11311309F812E813F81FC013183208307C08E81F2
S11311409F812B813C81FC01318320838E819F818F
S11311502981FC01238F8E819F812A81FC01248FA8
S11311608E819F8161E00E94A1078E819F812D81E4
S1131170FC0120A3000027960FB6F894DEBF0FBE33
S1131180CDBFDF91CF911F910F910895CF93DF933E
S1131190CDB7DEB72E970FB6F894DEBF0FBECDBF26
S11311A0998788877B876A875D874C872E87198212
S11311B0888599859B838A830FB6F8940F928A81D8
S11311C09B81FC01228D8A819B81FC01838D2817E0
S11311D018F08E85823011F52A853B858A819B81A2
S11311E04E85B9010E944B0A8C838A819B81FC0144
S11311F08189882351F08A819B8141960E94B9118B
S1131200882341F00E94900605C08C81882311F048
S11312100E9490060F900FBE81E060C08C859D8572
S1131220892B21F40F900FBE80E058C08981882358
S113123031F4CE0105960E94261281E089830F9035
S11312400FBE0E94390F0FB6F8940F928A819B81CA
S1131250FC01858D8F3F21F48A819B81FC01158ED1
S11312608A819B81FC01868D8F3F21F48A819B8139
S1131270FC01168E0F900FBE9E01245F3F4FCE01DE
S11312800596B9010E944212882309F58A819B813F
S11312900E94D30B8823A1F02C853D858A819B81F4
S11312A00896B9010E9496118A819B810E94570B6E
S11312B00E94460F882309F07FCF0E9490067CCFBE
S11312C08A819B810E94570B0E94460F75CF8A81A9
S11312D09B810E94570B0E94460F80E02E960FB60A
S11312E0F894DEBF0FBECDBFDF91CF910895CF93A9
S11312F0DF93CDB7DEB760970FB6F894DEBF0FBEAD
S1131300CDBF9B878A877D876C875F874E87288BB5
S113131019828A859B859B838A830FB6F8940F92E2
S11313208A819B81FC01828D8C838C81882309F4C2
S113133042C08A819B81FC01868197819E838D8333
S11313402C853D858A819B81B9010E94060B888981
S11313508823B9F48C812FEF280F8A819B81FC01AB
S1131360228F8A819B81FC018085882301F18A81F7
S11313709B8108960E94B9118823C9F00E949006A7
S113138016C08A819B812D813E81FC01378326838F
S11313908A819B81FC018189882349F08A819B8110
S11313A041960E94B911882311F00E9490060F9073
S11313B00FBE81E067C08E859F85892B21F40F9035
S11313C00FBE80E05FC08981882331F4CE01079687
S11313D00E94261281E089830F900FBE0E94390F6C
S11313E00FB6F8940F928A819B81FC01858D8F3F03
S11313F021F48A819B81FC01158E8A819B81FC01E9
S1131400868D8F3F21F48A819B81FC01168E0F907B
S11314100FBE9E01225F3F4FCE010796B9010E9485
S11314204212882309F58A819B810E94B50B882387
S1131430A1F02E853F858A819B814196B9010E9446
S113144096118A819B810E94570B0E94460F882324
S113145009F063CF0E94900660CF8A819B810E942D
S1131460570B0E94460F59CF8A819B810E94570BCC
S11314700E94460F8A819B810E94B50B882309F440
S11314804CCF80E060960FB6F894DEBF0FBECDBFA0
S1131490DF91CF910895CF93DF93CDB7DEB7279730
S11314A00FB6F894DEBF0FBECDBF9C838B837E83C3
S11314B06D834F831A828B819C81FC01828D898389
S11314C08B819C81FC01848D882309F48EC08F81DB
S11314D08823D9F58B819C81FC01848D482F50E0B1
S11314E08B819C81FC01848195812D813E81B90190
S11314F00E94661C8B819C81FC01248135818B8137
S11315009C81FC01848D882F90E0280F391F8B81EA
S11315109C81FC01358324838B819C81FC01248183
S113152035818B819C81FC01828193812817390745
S113153008F45BC08B819C81FC01208131818B810B
S11315409C81FC013583248350C08B819C81FC01E8
S1131550848D482F50E08B819C81FC01868197818A
S11315602D813E81B9010E94661C8B819C81FC0106
S1131570268137818B819C81FC01848D882F90E0AA
S1131580919581959109280F391F8B819C81FC01CC
S1131590378326838B819C81FC01268137818B8153
S11315A09C81FC018081918128173907A8F48B81E3
S11315B09C81FC01228133818B819C81FC01848D7F
S11315C0882F90E0919581959109280F391F8B817F
S11315D09C81FC01378326838F81823031F4898199
S11315E0882319F0898181508983898121E0280F1A
S11315F08B819C81FC01228F8A8127960FB6F894F7
S1131600DEBF0FBECDBFDF91CF910895CF93DF939F
S113161000D000D0CDB7DEB79A8389837C836B83F7
S113162089819A81FC01848D8823C9F189819A81F9
S1131630FC012681378189819A81FC01848D882F60
S113164090E0280F391F89819A81FC013783268312
S113165089819A81FC012681378189819A81FC01E3
S1131660828193812817390750F089819A81FC017E
S11316702081318189819A81FC0137832683898184
S11316809A81FC01848D482F50E089819A81FC0164
S1131690268137818B819C81B9010E94661C0000E0
S11316A00F900F900F900F90DF91CF910895CF93EB
S11316B0DF9300D000D0CDB7DEB79C838B830FB609
S11316C0F8940F928B819C81FC01868D898312C0D2
S11316D08B819C81FC018189882381F08B819C8191
S11316E041960E94B911882311F00E94AA1289819F
S11316F081508983898118165CF301C000008B81B5
S11317009C812FEFFC01268F0F900FBE0FB6F8942B
S11317100F928B819C81FC01858D8A8312C08B8101
S11317209C81FC018085882381F08B819C810896B3
S11317300E94B911882311F00E94AA128A81815053
S11317408A838A8118165CF301C000008B819C8116
S11317502FEFFC01258F0F900FBE00000F900F900C
S11317600F900F90DF91CF910895CF93DF9300D026
S11317701F92CDB7DEB79B838A830FB6F8940F927E
S11317808A819B81FC01828D882319F481E08983FD
S113179001C019820F900FBE89810F900F900F9096
S11317A0DF91CF910895CF93DF9300D01F92CDB7EF
S11317B0DEB79B838A830FB6F8940F928A819B814C
S11317C0FC01228D8A819B81FC01838D281719F4E9
S11317D081E0898301C019820F900FBE89810F9027
S11317E00F900F90DF91CF9108958F929F92AF92B7
S11317F0BF92CF92DF92EF92FF920F931F93CF93FA
S1131800DF93CDB7DEB760970FB6F894DEBF0FBE97
S1131810CDBF9F838E83798768875B874A873D879F
S11318202C870E87F88AEF868A859B850E94190388
S11318309D838C838C819D81892BB9F086E290E015
S11318400E9419039A83898389819A81892B41F0A3
S113185089819A812C813D81FC01308F278B07C0BF
S11318608C819D810E94080402C01A821982898198
S11318709A81892B09F18A859B85CC01A0E0B0E08F
S113188009811A814F8558892C853D85688579851C
S1131890EE81FF81812C912C58016A01EE8489012B
S11318A09C01AD01CF010E94720C89819A810E9432
S11318B0450D81E08B8302C08FEF8B838B81609613
S11318C00FB6F894DEBF0FBECDBFDF91CF911F914D
S11318D00F91FF90EF90DF90CF90BF90AF909F90CB
S11318E08F9008958F929F92AF92BF92CF92DF9282
S11318F0EF920F931F93CF93DF93CDB7DEB7649727
S11319000FB6F894DEBF0FBECDBF9D838C837F835B
S11319106E83288739874A875B871D870C87EE8605
S1131920D88ACF86BA8AA98A9C8A8B8A28853985DF
S113193089899A89FC018789908DA90165EA70E0FB
S11319400E946F1C89899A89FC012789308D8885BA
S113195099850197820F931F9B838A83198221C0E3
S11319608981882F90E02981222F30E04E815F8188
S1131970240F351FF901408129893A89820F931F69
S11319804996FC0140838981882F90E02E813F8114
S1131990820F931FFC018081882339F089818F5F36
S11319A0898389818430E0F201C0000089899A89A1
S11319B0FC01148E8E85843010F083E08E87898933
S11319C09A892E85FC01268B89899A8902960E9420
S11319D0E90189899A890C960E94E90189899A8981
S11319E029893A89FC01318720878E85882F90E0E8
S11319F024E030E0281B390B89899A89FC0135875A
S1131A00248789899A8929893A89FC01338B228B15
S1131A1089899A89FC0110A2178E89899A89FC0107
S1131A2011A212A213A214A289899A89FC0115A2F7
S1131A304C855D852C813D818A819B81B9010E9401
S1131A40B2049C0189899A89FC01318320838F85A2
S1131A509889892B39F08F85988929893A89FC01DD
S1131A6031832083000064960FB6F894DEBF0FBE66
S1131A70CDBFDF91CF911F910F91EF90DF90CF9069
S1131A80BF90AF909F908F900895CF93DF9300D035
S1131A90CDB7DEB79A8389830FB6F8940F928091FD
S1131AA08A078F5F80938A07809145079091460744
S1131AB0892B69F489819A8190934607809345071D
S1131AC080918A078130C9F40E94C51216C08091A2
S1131AD08E07882391F48091450790914607FC0175
S1131AE0268989819A81FC018689821730F089814F
S1131AF09A819093460780934507809192078F5F60
S1131B00809392072091920789819A81FC01258F05
S1131B1089819A81FC01968980918D07891730F417
S1131B2089819A81FC01868980938D0789819A81B4
S1131B30AC014E5F5F4F89819A81FC018689282F11
S1131B4030E0C901880F991F880F991F880F991FCA
S1131B50820F931F895B984FBA010E94FB010F907B
S1131B600FBE80918E07882371F080914507909174
S1131B704607FC01268989819A81FC0186892817F8
S1131B8010F40E94900600000F900F90DF91CF9107
S1131B900895CF93DF93CDB7DEB72A970FB6F894A5
S1131BA0DEBF0FBECDBF98878F837A87698719827E
S1131BB00E94390F80918B0790918C079B838A83B5
S1131BC08F819885FC012081318189859A85820FD6
S1131BD0931F9D838C838F819885FC0120813181A3
S1131BE08A819B8182179307A0F48F819885FC01D9
S1131BF0208131818C819D8182179307E8F42C81A7
S1131C003D818A819B8182179307B0F481E08983A7
S1131C1013C08F819885FC01208131818C819D8145
S1131C208217930738F02C813D818A819B8182172A
S1131C30930710F481E089838F8198852C813D81FD
S1131C40FC01318320838981882359F02C813D81D3
S1131C508A819B81A901481B590BCA0160E00E943B
S1131C6036130E94460F8E838E81882311F40E94BE
S1131C70900600002A960FB6F894DEBF0FBECDBFC3
S1131C80DF91CF910895CF93DF93CDB7DEB7289737
S1131C900FB6F894DEBF0FBECDBF9F838E836887D7
S1131CA019828885843010F083E088870FB6F89411
S1131CB00F928E819F81892B29F480914507909101
S1131CC0460702C08E819F819B838A838A819B8180
S1131CD0FC0186898C839C818885981709F488C0C7
S1131CE098858C818917A8F48091450790914607BF
S1131CF02A813B8128173907B9F0809145079091D3
S1131D004607FC0196898885891770F081E08983EC
S1131D100BC080914507909146072A813B81281783
S1131D20390711F481E089838A819B81FC018689CA
S1131D308D838A819B812885FC01268B8A819B81E6
S1131D40FC0184859585992364F08885882F90E02B
S1131D5024E030E0281B390B8A819B81FC01358704
S1131D6024878A819B81FC01428553858D81282F9C
S1131D7030E0C901880F991F880F991F880F991F98
S1131D80820F931F895B984F4817590761F58A8121
S1131D909B8102960E94C2028A819B81FC019689E2
S1131DA080918D07891730F48A819B81FC01868993
S1131DB080938D078A819B81AC014E5F5F4F8A813E
S1131DC09B81FC018689282F30E0C901880F991F67
S1131DD0880F991F880F991F820F931F895B984F53
S1131DE0BA010E94FB018981882311F00E949006A8
S1131DF00F900FBE000028960FB6F894DEBF0FBEFA
S1131E00CDBFDF91CF910895EF92FF920F93CF93BF
S1131E10DF931F92CDB7DEB70F2EF5E9EF2EF7E073
S1131E20FF2EF02D00E020E030E044EC50E061E1D2
S1131E3071E085EB92E10E94F50B89838981813001
S1131E4081F4F8948FEF9FEF909394078093930716
S1131E5081E080938E0710928C0710928B070E946A
S1131E605B0600000F90DF91CF910F91FF90EF90F0
S1131E700895CF93DF93CDB7DEB7809197078F5F37
S1131E80809397070000DF91CF910895CF93DF935C
S1131E9000D000D0CDB7DEB71A8219821B820FB6EC
S1131EA0F8940F92809197078150809397078091BF
S1131EB09707882309F077C080918A07882309F45B
S1131EC072C049C08091860790918707FC01868182
S1131ED097819A83898389819A810C960E94C20290
S1131EE089819A8102960E94C20289819A81FC01A9
S1131EF0968980918D07891730F489819A81FC0134
S1131F00868980938D0789819A81AC014E5F5F4FEA
S1131F1089819A81FC018689282F30E0C901880FC4
S1131F20991F880F991F880F991F820F931F895B30
S1131F30984FBA010E94FB0189819A81FC0126898C
S1131F408091450790914607FC018689281718F06F
S1131F5081E08093900780918107882309F0B2CFB4
S1131F6089819A81892B11F00E94071380918F0730
S1131F708C838C81882379F00E94F40F882319F0D4
S1131F8081E0809390078C8181508C838C8188239D
S1131F9099F710928F0780919007882321F081E0B0
S1131FA08B830E9490060F900FBE8B810F900F9031
S1131FB00F900F90DF91CF910895CF93DF9300D0CE
S1131FC0CDB7DEB70FB6F8940F9280918B0790913E
S1131FD08C079A8389830F900FBE89819A810F9011
S1131FE00F90DF91CF910895CF93DF93CDB7DEB7F4
S1131FF029970FB6F894DEBF0FBECDBF198280912A
S11320009707882309F0C8C080918B0790918C07AB
S113201001969B838A838A819B8190938C0780930A
S11320208B078A819B81892BD9F480917D079091BC
S11320307E079D838C8380917F0790918007909386
S11320407E0780937D078C819D8190938007809388
S11320507F07809191078F5F809391070E940713F8
S113206080919307909194072A813B81281739071F
S113207008F478C080917D0790917E07FC018081EF
S1132080882339F48FEF9FEF9093940780939307FD
S113209069C080917D0790917E07FC0185819681BE
S11320A0FC01868197819F838E838E819F81FC01B1
S11320B082819381998788872A813B818885998544
S11320C02817390738F48885998590939407809365
S11320D0930748C08E819F8102960E94C2028E811E
S11320E09F81FC0184899589892B29F08E819F81A8
S11320F00C960E94C2028E819F81FC019689809178
S11321008D07891730F48E819F81FC018689809325
S11321108D078E819F81AC014E5F5F4F8E819F81C1
S1132120FC018689282F30E0C901880F991F880F88
S1132130991F880F991F820F931F895B984FBA01CB
S11321400E94FB018E819F81FC01268980914507B5
S113215090914607FC018689281708F48BCF81E00B
S1132160898388CF8091450790914607FC01868931
S1132170282F30E0C901880F991F880F991F880FF5
S1132180991F820F931F895B984FFC0180818230D5
S113219040F081E0898305C080918F078F5F809331
S11321A08F0780919007882311F081E089838981CA
S11321B029960FB6F894DEBF0FBECDBFDF91CF9145
S11321C00895CF93DF9300D000D000D0CDB7DEB711
S11321D09C838B837E836D838B819C81892B39F4D3
S11321E080914507909146079A83898304C08B8127
S11321F09C819A8389830FB6F8940F9289819A817E
S11322002D813E81FC0130A3278F0F900FBE00006B
S113221026960FB6F894DEBF0FBECDBFDF91CF91E7
S113222008951F93CF93DF9300D01F92CDB7DEB7ED
S113223080919707882321F081E0809390076EC0F6
S11322401092900780918D07898303C08981815002
S113225089838981282F30E0C901880F991F880F4D
S1132260991F880F991F820F931F895B984FFC0158
S11322708081882359F38981282F30E0C901880F90
S1132280991F880F991F880F991F820F931F895BCD
S1132290984F9B838A838A819B81FC0181819281EF
S11322A0FC01228133818A819B81FC013283218359
S11322B08A819B81FC01218132818A819B810396E1
S11322C02817390769F48A819B81FC0181819281F5
S11322D0FC01228133818A819B81FC013283218329
S11322E08A819B81FC0181819281FC018681978195
S11322F09093460780934507898180938D07809149
S1132300450790914607FC01878D90A1182F0E94E4
S1132310DD0F20E040E0612F0E94221900000F90A1
S11323200F900F90DF91CF911F910895CF93DF937A
S113233000D000D0CDB7DEB79A8389837C836B83CA
S113234080914507909146079C01245F3F4F898106
S11323509A81B9010E944A028B819C8161E00E94AA
S1132360361300000F900F900F900F90DF91CF91D4
S11323700895CF93DF9300D000D01F92CDB7DEB77E
S11323809D838C838C819D81FC0185819681FC01D8
S1132390868197819B838A838A819B810C960E9484
S11323A0C20280919707882369F58A819B810296EE
S11323B00E94C2028A819B81FC01968980918D07CB
S11323C0891730F48A819B81FC01868980938D076B
S11323D08A819B81AC014E5F5F4F8A819B81FC01A6
S11323E08689282F30E0C901880F991F880F991F0B
S11323F0880F991F820F931F895B984FBA010E941F
S1132400FB0108C08A819B810C96BC0181E897E09E
S11324100E94FB018A819B81FC01268980914507EA
S113242090914607FC018689821730F481E0898304
S113243081E08093900701C0198289810F900F90E9
S11324400F900F900F90DF91CF910895CF93DF936A
S113245000D0CDB7DEB79A83898320919107898113
S11324609A81FC01208320918B0730918C0789810C
S11324709A81FC013283218300000F900F90DF9139
S1132480CF910895CF93DF93CDB7DEB727970FB6DB
S1132490F894DEBF0FBECDBF9D838C837F836E8394
S11324A00FB6F8940F9280918B0790918C079B83C1
S11324B08A838C819D81FC0190818091910798177A
S11324C069F08C819D81FC01218132818A819B810B
S11324D08217930718F081E0898330C08C819D8135
S11324E0FC01818192812A813B81281B390B8E81D9
S11324F09F81FC018081918128173907E8F48E813E
S11325009F81FC01208131818C819D81FC0141816D
S113251052818A819B81BA01681B790BCB01280FF8
S1132520391F8E819F81FC01318320838C819D81A1
S11325300E942612198202C081E089830F900FBE87
S1132540898127960FB6F894DEBF0FBECDBFDF9109
S1132550CF910895CF93DF93CDB7DEB781E0809319
S113256090070000DF91CF910895CF93DF9300D0BF
S1132570CDB7DEB79A8389830E94FF128091470703
S11325808230D0F30E949006F7CFCF93DF931F924F
S1132590CDB7DEB7198213C08981282F30E0C90175
S11325A0880F991F880F991F880F991F820F931FF7
S11325B0895B984F0E94B30189818F5F89838981E8
S11325C0843050F38BE697E00E94B30184E797E0F0
S11325D00E94B30181E897E00E94B3018BE697E083
S11325E090937E0780937D0784E797E0909380071C
S11325F080937F0700000F90DF91CF910895CF93D0
S1132600DF93CDB7DEB70000DF91CF910895CF936C
S1132610DF9300D0CDB7DEB780917D0790917E0720
S1132620FC018081882339F48FEF9FEF9093940706
S11326308093930715C080917D0790917E07FC01DC
S113264085819681FC01868197819A83898389811A
S11326509A81FC01828193819093940780939307DC
S113266000000F900F90DF91CF910895CF93DF93E7
S1132670CDB7DEB727970FB6F894DEBF0FBECDBF38
S11326809E838D836F8380918B0790918C079A83AF
S11326908983809145079091460702960E94C20261
S11326A029813A818D819E81820F931F9C838B8324
S11326B080914507909146072B813C81FC0133832F
S11326C022832B813C8189819A812817390778F4E8
S11326D080914507909146079C012E5F3F4F809162
S11326E07F0790918007B9010E944A021DC0809122
S11326F04507909146079C012E5F3F4F80917D07CF
S113270090917E07B9010E944A02809193079091AB
S113271094072B813C812817390730F48B819C81E5
S11327209093940780939307000027960FB6F8942C
S1132730DEBF0FBECDBFDF91CF910895EF92FF9220
S11327400F93CF93DF9300D000D000D0CDB7DEB786
S11327500E941C1B43E060E081E00E9435089093D6
S1132760AA078093A9078091A9079091AA0720E05E
S113277040E050E060E070E00E94C608CE0101969F
S11327807C0101E020E030E044EC50E066E171E0DF
S113279087E194E10E94F50BCE0103967C0101E0F0
S11327A020E030E044EC50E069E171E082E794E13C
S11327B00E94F50BCE0105967C0101E020E030E09B
S11327C044EC50E06CE171E08DEC94E10E94F50B77
S11327D0E12CF12C04E020E030E044EC50E06FE127
S11327E071E088E295E10E94F50B89819A819093CA
S11327F0AC078093AB078B819C819093AE07809349
S1132800AD078D819E819093B0078093AF070E949E
S1132810040F80E090E026960FB6F894DEBF0FBE5A
S1132820CDBFDF91CF910F91FF90EF900895CF939B
S1132830DF9300D000D0CDB7DEB79C838B8361E0FB
S113284070E080E090E00E94E1101A82198268E250
S113285070E081E00E94C31A8091A9079091AA07B1
S1132860892BB1F10E94DD0F20E043E061E00E947A
S113287022198091A9079091AA0720E04FEF5FEFFA
S113288060E070E00E947709882311F10E94DD0F57
S113289020E041E061E00E942219809109019091B9
S11328A00A018897BC0180E00E94C31A0E94DD0FD0
S11328B020E042E061E00E9422198091A9079091F2
S11328C0AA0720E040E050E060E070E00E94C60803
S11328D08091030190910401BC01CE0101960E94F4
S11328E0C90DB5CFCF93DF9300D000D0CDB7DEB7FD
S11328F09C838B8362E070E080E090E00E94E110B2
S11329001A82198264E170E081E00E94C31A809106
S1132910A9079091AA07892BB1F10E94DD0F20E04D
S113292043E062E00E9422198091A9079091AA07CE
S113293020E04FEF5FEF60E070E00E9477098823AA
S113294011F10E94DD0F20E041E062E00E942219B3
S113295080910B0190910C014497BC0180E00E948E
S1132960C31A0E94DD0F20E042E062E00E942219B7
S11329708091A9079091AA0720E040E050E060E030
S113298070E00E94C6088091050190910601BC0187
S1132990CE0101960E94C90DB5CFCF93DF9300D02D
S11329A000D0CDB7DEB79C838B8363E070E080E01A
S11329B090E00E94E1101A8219826EE170E081E0D9
S11329C00E94C31A8091A9079091AA07892BB1F19B
S11329D00E94DD0F20E043E063E00E942219809111
S11329E0A9079091AA0720E04FEF5FEF60E070E045
S11329F00E947709882311F10E94DD0F20E041E055
S1132A0063E00E94221980910D0190910E014E976E
S1132A10BC0180E00E94C31A0E94DD0F20E042E066
S1132A2063E00E9422198091A9079091AA0720E0EF
S1132A3040E050E060E070E00E94C6088091070129
S1132A4090910801BC01CE0101960E94C90DB5CF39
S1132A50CF92DF92EF92FF92CF93DF93CDB7DEB7A1
S1132A606B970FB6F894DEBF0FBECDBF9B8F8A8FD6
S1132A70188A1F8664E070E080E090E00E94E11014
S1132A800E94DD0F9E838D831F828FEF9FEF9987B6
S1132A908887198266C08981882F90E0880F991FE2
S1132AA08555984FFC018081918161E00E94430E1D
S1132AB08D819E81CC01A0E0B0E0BC01CD010E94DB
S1132AC0D81B6B017C018981882F90E0880F991FA6
S1132AD08D5F9E4FFC0180819181CC01A0E0B0E02C
S1132AE0BC01CD010E94D81BDC01CB019C01AD01CE
S1132AF0C701B6010E94301BDC01CB01BC01CD0132
S1132B000E94A21BDC01CB0101969E878D878981DF
S1132B10882F90E02981222F30E0220F331F2D5F70
S1132B203E4FF901608171812D853E85629FA00130
S1132B30639F500D729F500D11242D813E81BA0167
S1132B40621B730B9B01880F991FAE014F5F5F4F90
S1132B50840F951F4096FC013183208389818F5F08
S1132B608983809102019981981708F494CF1F8A70
S1132B7081E0888F82E0898F1A82A9C01B828FC06E
S1132B808B81882F90E0880F991F9E012F5F3F4F04
S1132B90820F931F4096FC01208131818B81882F05
S1132BA090E00196880F991FAE014F5F5F4F840F2D
S1132BB0951F4096FC01808191818217930708F04C
S1132BC06BC08B81882F90E00196880F991F9E011E
S1132BD02F5F3F4F820F931F4096FC0180819181AC
S1132BE09B878A878B81882F90E001962B81222FE7
S1132BF030E0220F331FAE014F5F5F4F240F351FAC
S1132C00205F3F4FF90120813181880F991FAE0168
S1132C104F5F5F4F840F951F4096FC0131832083E3
S1132C208B81882F90E0880F991F9E012F5F3F4F63
S1132C30820F931F40962A853B85FC0131832083B4
S1132C408B81882F90E001969E01295E3F4F820F71
S1132C50931FFC0180818C878B81882F90E00196E3
S1132C602B81222F30E0AE01495E5F4F240F351FC8
S1132C70F90140819E01295E3F4F820F931FFC01A1
S1132C8040838B81882F90E09E01295E3F4F820F05
S1132C90931F2C85FC0120838B818F5F8B838B8119
S1132CA0282F30E080910201882F90E0AC01415040
S1132CB051098A81882F90E0BA01681B790BCB01F6
S1132CC0281739070CF45CCF8A818F5F8A838A8145
S1132CD0282F30E080910201882F90E00197281777
S1132CE039070CF44BCF1C821DC093E08C81492F13
S1132CF0481B8C81882F90E09E01295E3F4F820FF4
S1132D00931FFC018081882F90E0880F991F8555BF
S1132D10984FFC0180819181642F0E94430E8C8125
S1132D208F5F8C83809102019C819817F0F28091CF
S1132D300F01282F30E0CE010F96B9010E94C90D72
S1132D409FCE1F920F9200905F000F9211242F9339
S1132D503F938F939F93EF93FF93CF93DF93CDB7DD
S1132D60DEB780EC90E0FC0180818C718093A50734
S1132D7086EC90E0FC0180818093A60781EC90E0D2
S1132D8021EC30E0F90120812F77FC012083789435
S1132D9080911001882F90E08130910561F182309B
S1132DA09105E1F1892B09F040C020919E073091F3
S1132DB09F078091A10791E0980F9093A107882F16
S1132DC090E0820F931F2091A607FC01208390912D
S1132DD0A6078091A207981721F482E0809310013E
S1132DE021C09091A1078091A0079817D9F481E0A0
S1132DF08093100117C08091A3079091A4070196B6
S1132E009093A4078093A3079091A6078091A207AB
S1132E10981751F482E08093100106C083E08093F8
S1132E20100103C0000001C00000F89481EC90E0A0
S1132E3021EC30E0F90120812068FC0120830000AE
S1132E40DF91CF91FF91EF919F918F913F912F91BE
S1132E500F9000925F000F901F901895CF93DF930F
S1132E60CDB7DEB784E08093100180919E079091E6
S1132E709F07892B61F01092A1071092A40710926A
S1132E80A3071092A5071092A60710921001000044
S1132E90DF91CF910895CF93DF9300D000D01F929C
S1132EA0CDB7DEB79B838A836C834D838FE590E037
S1132EB0FC018081807889838981882309F0F894D2
S1132EC085EC90E0FC01108284EC90E029E1FC01A7
S1132ED0208380EC90E020EC30E0F90120812C7F0D
S1132EE0FC01208381EC90E028E9FC01208382EC42
S1132EF090E026E0FC01208309C01F93EF93FF9329
S1132F00E6ECFF271081FF91EF911F9180EC90E098
S1132F10FC01808188238CF38A819B8190939F0795
S1132F2080939E078C818093A0078D818093A20754
S1132F300E942E178981882309F0789400000F904D
S1132F400F900F900F900F90DF91CF910895CF9332
S1132F50DF9300D000D01F92CDB7DEB79C838B8364
S1132F606D838B819C81892BD9F11A8219821CC0B3
S1132F70000080EC90E0FC018081882F90E080725A
S1132F809927892BB1F326EC30E089819A81AC0131
S1132F904F5F5F4F5A8349834B815C81840F951F38
S1132FA0FC018081F90180832B813C8189819A8194
S1132FB0820F931FFC0190818D819817C9F6000040
S1132FC080EC90E0FC018081882F90E0807299274A
S1132FD0892BB1F386EC90E02D81FC01208301C0A4
S1132FE000000F900F900F900F900F90DF91CF91F2
S1132FF00895CF93DF93CDB7DEB784E290E024E267
S113300030E0F90120812F7EFC01208384E290E0EE
S113301024E230E0F90120812862FC0120838AE265
S113302090E02AE230E0F90120812860FC0120834D
S113303084E290E024E230E0F90120812460FC0184
S113304020838BE290E02BE230E0F90120812860BC
S1133050FC0120838CE490E02CE5FC0120838DE4CA
S113306090E02DE430E0F90120812160FC0120830F
S11330700000DF91CF910895AF92BF92CF92DF927B
S1133080EF92FF92CF93DF9300D000D000D0CDB762
S1133090DEB79A8389837C836B835E834D832D8122
S11330A08D819E81892F9927482F398189819A8121
S11330B0892F9927582F8B819C81682F8B819C8124
S11330C0892F9927A22EB42EC32ED52EE62EF82EA4
S11330D02F93EF93FF93CF93DF93AF93BF93AA2DD7
S11330E0BB2D0B2E0A2A09F1EDE4FF275B9822E0A1
S11330F02EBD0D2C208127FBEEF72EB50EBC0C2C1B
S1133100208127FBEEF72EB50EBC208127FBEEF7BE
S11331102EB5CE2DDF2D09900EBC0990208127FB02
S1133120EEF72EB51197C1F75B9ABF91AF91DF917E
S1133130CF91FF91EF912F91000026960FB6F8944E
S1133140DEBF0FBECDBFDF91CF91FF90EF90DF9038
S1133150CF90BF90AF900895AF92BF92CF92DF927D
S1133160EF92FF92CF93DF9300D000D000D0CDB781
S1133170DEB79A8389837C836B835E834D832D8141
S11331808D819E81892F9927482F398189819A8140
S1133190892F9927582F8B819C81682F8B819C8143
S11331A0892F9927A22EB42EC32ED52EE62EF82EC3
S11331B02F93EF93FF93CF93DF93AF93BF93AA2DF6
S11331C0BB2D0A2E0B2A39F1EDE4FF275B9823E08F
S11331D02EBD0D2C208127FBEEF72EB50EBC0C2C3A
S11331E0208127FBEEF72EB50EBC2FEF022E208197
S11331F027FBEEF72EB50EBCCE2DDF2D2FEF008072
S113320007FAEEF70EB42EBD09921197C1F70080AC
S113321007FAEEF75B9ABF91AF91DF91CF91FF91DF
S1133220EF912F91000026960FB6F894DEBF0FBEE3
S1133230CDBFDF91CF91FF90EF90DF90CF90BF9003
S1133240AF900895CF93DF93CDB7DEB728970FB62D
S1133250F894DEBF0FBECDBF9D838C836E834F83F6
S113326028878E810E94CE008C819D819093C20715
S11332708093C1078E81882F90E09093C407809338
S1133280C3078F81882F90E09093C6078093C5076A
S11332908885882F90E09093C8078093C707809112
S11332A0A7079091A80748E050E061EC77E00E94FE
S11332B03C188091A7079091A80708969093A807B7
S11332C08093A7078091A7079091A80781329E4415
S11332D008F44FC18FE70E94CE001092A807109205
S11332E0A7078DE0E2E2F1E0A1EBB7E001900D92D7
S11332F08A95E1F76DE081EB97E00E94A717809132
S11333000201882F90E0292F2F938F938FE291E071
S1133310892F8F938FE291E08F9381EB97E0892F30
S11333208F9381EB97E08F930E94761C0F900F9000
S11333300F900F900F900F906DE081EB97E00E943B
S1133340A717198234C08981882F90E0880F991FAC
S1133350875F9E4FFC01208131818981882F90E015
S11333600196432F4F932F93292F2F938F938AE303
S113337091E0892F8F938AE391E08F9381EB97E01B
S1133380892F8F9381EB97E08F930E94761C8DB7E2
S11333909EB708960FB6F894DEBF0FBECDBF6DE0A2
S11333A081EB97E00E94A71789818F5F89838091C1
S11333B002019981981738F21A8234C08A81882FC1
S11333C090E0880F991F8D5F9E4FFC012081318111
S11333D08A81882F90E00196432F4F932F93292FB2
S11333E02F938F938AE391E0892F8F938AE391E05F
S11333F08F9381EB97E0892F8F9381EB97E08F93E5
S11334000E94761C8DB79EB708960FB6F894DEBF5F
S11334100FBECDBF6DE081EB97E00E94A7178A81B4
S11334208F5F8A83809102019A81981738F21B82F8
S113343034C08B81882F90E0880F991F8856984F4D
S1133440FC01208131818B81882F90E00196432FEC
S11334504F932F93292F2F938F938AE391E0892FF2
S11334608F938AE391E08F9381EB97E0892F8F9379
S113347081EB97E08F930E94761C8DB79EB70896D8
S11334800FB6F894DEBF0FBECDBF6DE081EB97E0C1
S11334900E94A7178B818F5F8B83809102019B8190
S11334A0981738F24CC08091A7079091A80748E07C
S11334B050E061EC77E00E94AC186091C70770910E
S11334C0C8074091C5075091C6072091C3073091A2
S11334D0C4078091C1079091C207E72FEF936F93C0
S11334E0652F6F934F93432F4F932F93292F2F9330
S11334F08F9386E491E0892F8F9386E491E08F93F4
S113350081EB97E0892F8F9381EB97E08F930E9453
S1133510761CEDB7FEB73C960FB6F894DEBF0FBE2F
S1133520CDBF6DE081EB97E00E94A7178091A707BC
S11335309091A80708969093A8078093A707809175
S1133540A7079091A80780329E4408F4ACCF8CE082
S1133550E4E5F1E0A1EBB7E001900D928A95E1F783
S11335606DE081EB97E00E94A7171092A8071092D4
S1133570A707000028960FB6F894DEBF0FBECDBF94
S1133580DF91CF910895CF93DF93CDB7DEB729971D
S11335900FB6F894DEBF0FBECDBF8F8379876887DF
S11335A01A8219821C821B820E94DD0F9C838B83EA
S11335B08F81882371F189819A81892B51F58B81BF
S11335C09C819093C2078093C1078F81882F90E0DC
S11335D00A969093C4078093C3078B819C8120E053
S11335E04AE06F810E94221914C00E94DD0F9E835D
S11335F08D832B813C818D819E812817390749F069
S113360089819A8101969A8389838D819E819C8385
S11336108B8329813A81888599852817390728F36E
S11336201A821982000029960FB6F894DEBF0FBEE5
S1133630CDBFDF91CF910895CF93DF93CDB7DEB7A0
S1133640F8940E94F9170E9453004DE060E180E075
S113365090E00E944B1778940000DF91CF91089579
S11336600E94441B0C942C1C0E94251C58F00E94A0
S11336701E1C40F029F45F3F29F00C94151C5111D5
S11336800C94601C0C941B1C0E943D1C68F3992331
S1133690B1F3552391F3951B550BBB27AA2762174A
S11336A07307840738F09F5F5F4F220F331F441F57
S11336B0AA1FA9F335D00E2E3AF0E0E832D091508B
S11336C05040E695001CCAF72BD0FE2F29D0660F78
S11336D0771F881FBB1F261737074807AB07B0E8BB
S11336E009F0BB0B802DBF01FF2793585F4F3AF0C1
S11336F09E3F510578F00C94151C0C94601C5F3FA0
S1133700E4F3983ED4F3869577956795B795F79546
S11337109F5FC9F7880F911D9695879597F908952E
S1133720E1E0660F771F881FBB1F621773078407CA
S1133730BA0720F0621B730B840BBA0BEE1F88F7D9
S1133740E09508950E94A91B6894B1110C94601C23
S113375008950E94451C88F09F5798F0B92F992727
S1133760B751B0F0E1F0660F771F881F991F1AF068
S1133770BA95C9F714C0B13091F00E945F1CB1E052
S113378008950C945F1C672F782F8827B85F39F051
S1133790B93FCCF3869577956795B395D9F73EF401
S11337A090958095709561957F4F8F4F9F4F0895A9
S11337B0E89409C097FB3EF49095809570956195C7
S11337C07F4F8F4F9F4F9923A9F0F92F96E9BB277D
S11337D09395F695879577956795B795F111F8CFF9
S11337E0FAF4BB0F11F460FF1BC06F5F7F4F8F4F64
S11337F09F4F16C0882311F096E911C0772321F05A
S11338009EE8872F762F05C0662371F096E8862FF1
S113381070E060E02AF09A95660F771F881FDAF748
S1133820880F9695879597F9089597F99F6780E88B
S113383070E060E008959FEF80EC089500240A94FE
S11338401616170618060906089500240A94121677
S11338501306140605060895092E0394000C11F4AA
S1133860882352F0BB0F40F4BF2B11F460FF04C057
S11338706F5F7F4F8F4F9F4F089557FD9058440FB0
S1133880551F59F05F3F71F04795880F97FB991FBB
S113389061F09F3F79F08795089512161306140678
S11338A0551FF2CF4695F1DF08C016161706180605
S11338B0991FF1CF86957105610508940895E894E0
S11338C0BB2766277727CB0197F90895FB01DC0115
S11338D002C001900D9241505040D8F70895DC0188
S11338E001C06D9341505040E0F70895AEE0B0E060
S11338F0ECE7FCE10C94371F0D891E8986E08C836C
S11339001A8309838FEF9FE79E838D83AE01475E01
S11339105F4F6F89788DCE0101960E94981CEF81CC
S1133920F885E00FF11F10822E96E4E00C94531FEB
S1133930ABE0B0E0EEE9FCE10C94291F6C017B01E3
S11339408A01FC0117821682838181FFCCC1CE01DA
S113395001963C01F6019381F70193FD859193FF54
S113396081917F01882309F4BAC1853239F493FD2A
S1133970859193FF81917F01853229F4B60190E00E
S11339800E948F1EE7CF912C212C312CFFE1F315DF
S1133990D8F08B3279F038F4803279F08332A1F4A4
S11339A0232D20611DC08D3261F0803369F4232DF5
S11339B0216016C0832D8260382EE32DE4603E2EF4
S11339C02AC0F32DF8601DC037FC2DC020ED280F50
S11339D02A3040F08E32B9F436FC81C1232D2064A4
S11339E0322E19C036FE06C08AE0989E200D11249E
S11339F0922E11C0EAE02E9E200D1124222EF32DCA
S1133A00F0623F2E08C08C3621F4832D8068382E56
S1133A1002C0883641F4F70193FD859193FF8191AB
S1133A207F018111B3CF982F9F7D9554933028F453
S1133A300C5F1F4F9FE399830DC0833631F08337AA
S1133A4071F0833509F059C021C0F8018081898360
S1133A500E5F1F4F88248394912C530113C02801B7
S1133A60F2E04F0E511CF801A080B18036FE03C075
S1133A70692D70E002C06FEF7FEFC5010E94841EC4
S1133A804C018201F32DFF773F2E16C0280122E05E
S1133A90420E511CF801A080B18036FE03C0692D8E
S1133AA070E002C06FEF7FEFC5010E94791E4C01E8
S1133AB0F32DF0683F2E820133FC1BC0822D90E071
S1133AC088169906B0F4B60180E290E00E948F1E39
S1133AD02A94F4CFF50137FC859137FE81915F017B
S1133AE0B60190E00E948F1E21102A9421E0821AD0
S1133AF091088114910471F7E8C0843611F0893675
S1133B0041F5F80137FE07C060817181828193819C
S1133B100C5F1F4F08C060817181072E000C880B59
S1133B20990B0E5F1F4FF32DFF763F2E97FF09C0B1
S1133B3090958095709561957F4F8F4F9F4FF0685A
S1133B403F2E2AE030E0A3010E94CB1E882E861867
S1133B5045C0853731F4232D2F7EB22E2AE030E084
S1133B6025C0932D997FB92E8F36C1F018F488356E
S1133B7079F0B5C0803719F0883721F0B0C0E92F4B
S1133B80E061BE2EB4FE0DC0FB2DF460BF2E09C053
S1133B9034FE0AC0292F2660B22E06C028E030E089
S1133BA005C020E130E002C020E132E0F801B7FEB8
S1133BB007C060817181828193810C5F1F4F06C0B1
S1133BC06081718180E090E00E5F1F4FA3010E942D
S1133BD0CB1E882E8618FB2DFF773F2E36FE0DC098
S1133BE0232D2E7FA22E891458F434FE0BC032FCF0
S1133BF009C0832D8E7EA82E05C0B82CA32C03C02B
S1133C00B82C01C0B92CA4FE0FC0FE01E80DF11DB3
S1133C108081803321F49A2D997EA92E09C0A2FEB9
S1133C2006C0B394B39404C08A2D867809F0B39483
S1133C30A3FC11C0A0FE06C0B21488F4280C922C78
S1133C409B180EC0B21460F4B60180E290E00E94AA
S1133C508F1EB394F7CFB21418F42B1802C0982C0B
S1133C60212CA4FE10C0B60180E390E00E948F1EB8
S1133C70A2FE17C0A1FC03C088E790E002C088E55B
S1133C8090E0B6010CC08A2D867859F0A1FE02C0DE
S1133C908BE201C080E2A7FC8DE2B60190E00E94B5
S1133CA08F1E891438F4B60180E390E00E948F1EC1
S1133CB09A94F7CF8A94F301E80DF11D8081B6013F
S1133CC090E00E948F1E8110F5CF222009F442CE8D
S1133CD0B60180E290E00E948F1E2A94F6CFF6018E
S1133CE08681978102C08FEF9FEF2B96E2E10C94BF
S1133CF0451FFC010590615070400110D8F7809574
S1133D0090958E0F9F1F0895FC01615070400190A3
S1133D100110D8F7809590958E0F9F1F08950F93EB
S1133D201F93CF93DF93FB01238121FD03C08FEF0A
S1133D309FEF2CC022FF16C0468157812481358114
S1133D404217530744F4A081B1819D012F5F3F4F77
S1133D50318320838C93268137812F5F3F4F3783B4
S1133D60268314C08B01EC01FB010084F185E02D56
S1133D700995892BE1F6D80116968D919C91179798
S1133D80019617969C938E931697CE01DF91CF914F
S1133D901F910F910895FA01AA27283051F120317B
S1133DA081F1E8946F936E7F6E5F7F4F8F4F9F4FCB
S1133DB0AF4FB1E03ED0B4E03CD0670F781F891F0D
S1133DC09A1FA11D680F791F8A1F911DA11D6A0FDB
S1133DD0711D811D911DA11D20D009F468943F918E
S1133DE02AE0269F11243019305D3193DEF6CF018D
S1133DF00895462F4770405D4193B3E00FD0C9F753
S1133E00F6CF462F4F70405D4A3318F0495D31FDBF
S1133E104052419302D0A9F7EACFB4E0A695979512
S1133E20879577956795BA95C9F7009761057105E8
S1133E3008959B01AC010A2E069457954795379532
S1133E402795BA95C9F7620F731F841F951FA01D8C
S1133E5008952F923F924F925F926F927F928F922A
S1133E609F92AF92BF92CF92DF92EF92FF920F9305
S1133E701F93CF93DF93CDB7DEB7CA1BDB0B0FB60F
S1133E80F894DEBF0FBECDBF09942A8839884888CC
S1133E905F846E847D848C849B84AA84B984C88462
S1133EA0DF80EE80FD800C811B81AA81B981CE0F59
S1133EB0D11D0FB6F894DEBF0FBECDBFED0108953E
S1073EC0F894FFCFA0
S1133EC4DB05035E011801FA00BE00AA0096003265
S1133ED40449444C450054310054320054330054D2
S1133EE43400494E49542054524143450D0A002597
S1133EF4752030203020300D0A00257520257520CA
S1133F043020300D0A0025752025752025752025BF
S1133F14750D0A00454E442054524143450D0A0090
S90307985D
