S01A00006375657374696F6E5F74656F726963615F322E73726563C9
S11300000C9434000C9446000C9446000C94460066
S11300100C9446000C9446000C9446000C94460044
S11300200C9446000C9446000C9446000C94460034
S11300300C9446000C9446000C9468000C94460002
S11300400C9446000C9446000C9446000C94460014
S11300500C9446000C9446000C9446000C94460004
S11300600C9446000C94460011241FBECFEFD8E038
S1130070DEBFCDBF21E0A0E0B1E001C01D92A13000
S1130080B207E1F70E9489000C9490000C940000E0
S113009082E084BD97E095BD80936E009AEF97BD92
S11300A092E8909380009AE19093810080936F008E
S11300B08CE98093870080E48093860088EE93E047
S11300C0909389008093880084B1866084B90895F0
S11300D01F920F920FB60F9211248F939F938091CA
S11300E0000181110FC080E197E290938900809311
S11300F0880081E0809300012A9902C084E001C055
S113010080E085B99F918F910F900FBE0F901F9043
S11301101895F8940E944800109200017894FFCF3B
S1070120F894FFCF7D
S9030000FC
