:100000000C9434000C9446000C9446000C9446006A
:100010000C9446000C9446000C9446000C94460048
:100020000C9446000C9446000C9446000C94460038
:100030000C9446000C9446000C9468000C94460006
:100040000C9446000C9446000C9446000C94460018
:100050000C9446000C9446000C9446000C94460008
:100060000C9446000C94460011241FBECFEFD8E03C
:10007000DEBFCDBF21E0A0E0B1E001C01D92A23003
:10008000B207E1F70E9499000C949E000C940000C6
:1000900082E084BD97E095BD80936E009AEF97BD96
:1000A00092E8909380009AE19093810080936F0092
:1000B0008CE98093870080E48093860083E08093BE
:1000C000890088EE8093880084B1866084B90895A1
:1000D0001F920F920FB60F9211248F939F932A991C
:1000E00002C084E001C080E085B980910001909158
:1000F0000101892B69F481E090E0909301018093E4
:10010000000187E28093890080E1809388000AC023
:10011000109201011092000183E08093890088EE23
:10012000809388009F918F910F900FBE0F901F902A
:100130001895F8940E9448007894FFCFF894FFCF68
:00000001FF
