S01100007072616374696361342E7372656398
S11300000C9434000C94D2000C9446000C9415010A
S11300100C9446000C9446000C9446000C94460044
S11300200C9446000C9446000C9446000C94E60094
S11300300C9446000C9446000C9446000C94460024
S11300400C9446000C9446000C9446000C94460014
S11300500C9446000C9446000C9446000C94460004
S11300600C9446000C94460011241FBECFEFD8E038
S1130070DEBFCDBF21E0A0E0B1E001C01D92A13000
S1130080B207E1F70E9434010C944A010C94000079
S1130090282F217030E0A901440F551F440F551F2C
S11300A0982F9470292F30E035952795359527950D
S11300B0982F9270492B242B25B9482F407250E079
S11300C05595479555954795559547955595479514
S11300D055954795BA0162957295707F7627607F32
S11300E07627982F9071492F50E05595479555954F
S11300F047955595479555954795440F551F4295F6
S11301005295507F5427407F5427982F9870292F59
S113011030E035952795359527953595279536956E
S1130120322F222737952795462B242B2BB9282F9E
S1130130221F2227221F30E0220F331F220F331FDA
S1130140220F331F982F9074892F90E0082E892F47
S1130150000C881F990B000C881F991F829592959B
S1130160907F9827807F9827822B88B9089584B13F
S1130170876084B987B1886187B98AB1806B8AB98D
S11301800895E1E8F0E080818C608083EFE6F0E0A0
S113019080818260808389E09DE3909389008093CD
S11301A0880008951F920F920FB60F9211248F9317
S11301B09F9384E294EF90938900809388009F91A9
S11301C08F910F900FBE0F901F9018951F920F9252
S11301D00FB60F9211242F933F934F935F936F9316
S11301E07F938F939F93AF93BF93EF93FF938091EC
S11301F000018F5F80930001803410F010920001A1
S1130200809100010E944800FF91EF91BF91AF914E
S11302109F918F917F916F915F914F913F912F911A
S11302200F900FBE0F901F9018951F920F920FB64C
S11302300F9211248F939F931B9B07C089E09DE32A
S1130240909389008093880008C01C9B06C082E1BB
S11302509AE790938900809388009F918F910F90E3
S11302600FBE0F901F901895F89481E08DBB92E01B
S1130270909369001CBA8093680088E180936B00B6
S11302800E94B7000E94C100809100010E944800B2
S10B02907894FFCFF894FFCF2E
S9030000FC
