S0140000546573744672656552544F532E73726563A6
S11300000C9434000C9451000C9451000C94510045
S11300100C9451000C9451000C9451000C94510018
S11300200C9451000C9451000C9451000C94550103
S11300300C9451000C9451000C9451000C945100F8
S11300400C9451000C9451000C9451000C945100E8
S11300500C9451000C9451000C9451000C945100D8
S11300600C9451000C94510011241FBECFEFD8E022
S1130070DEBFCDBF11E0A0E0B1E0E8EEF5E002C0E4
S113008005900D92A030B107D9F721E0A0E0B1E0CE
S113009001C01D92A333B207E1F70E94E9020C9458
S11300A0F2020C940000CF93DF9300D000D000D074
S11300B0CDB7DEB79C838B837E836D838B819C81DC
S11300C0FC01818192819A8389838D819E8129811A
S11300D03A81FC013383228389819A81FC01248142
S11300E035818D819E81FC013583248389819A81A8
S11300F0FC01848195812D813E81FC01338322831F
S113010089819A812D813E81FC01358324838D81EF
S11301109E812B813C81FC01318720878B819C81CE
S1130120FC01808121E0280F8B819C81FC012083CC
S1130130000026960FB6F894DEBF0FBECDBFDF9148
S1130140CF910895CF93DF9300D000D0CDB7DEB721
S11301509C838B838B819C81FC01808591859A8310
S113016089838B819C81FC01828193812B813C81D9
S1130170F90124813581FC01358324838B819C81A1
S1130180FC01848195812B813C81F9012281338199
S1130190FC013383228389819A81FC01218132818C
S11301A08B819C812817390751F48B819C81FC0138
S11301B02481358189819A81FC01328321838B8159
S11301C09C81FC011186108689819A81FC018081C1
S11301D02FEF280F89819A81FC01208389819A81DC
S11301E0FC0180810F900F900F900F90DF91CF91C1
S11301F008950F920FB6F8940F921F9211242F9224
S11302003F924F925F926F927F928F929F92AF92A2
S1130210BF92CF92DF92EF92FF920F931F932F938F
S11302203F934F935F936F937F938F939F93AF937A
S1130230BF93CF93DF93EF93FF93A0910001B0910D
S113024001010DB60D920EB60D920E9459010E9445
S11302504602A0910001B0910101CD91CDBFDD9185
S1130260DEBFFF91EF91DF91CF91BF91AF919F914D
S11302708F917F916F915F914F913F912F911F913A
S11302800F91FF90EF90DF90CF90BF90AF909F9031
S11302908F907F906F905F904F903F902F901F9022
S11302A00F900FBE0F90089500000E94F90018955A
S11302B00000CF93DF93CDB7DEB729970FB6F8943C
S11302C0DEBF0FBECDBF198280913201882309F0B1
S11302D0C8C080912A0190912B0101969B838A8347
S11302E08A819B8190932B0180932A018A819B812F
S11302F0892BD9F480912601909127019D838C83C9
S113030080912801909129019093270180932601DF
S11303108C819D81909329018093280180912F01E4
S11303208F5F80932F010E94BA02809130019091D7
S113033031012A813B812817390708F478C080915C
S1130340260190912701FC018081882339F48FEFE5
S11303509FEF909331018093300169C08091260111
S113036090912701FC0185819681FC01868197810A
S11303709F838E838E819F81FC01828193819987E3
S113038088872A813B81888599852817390738F41D
S113039088859985909331018093300148C08E817E
S11303A09F8102960E94A2008E819F81FC01848914
S11303B09589892B29F08E819F810C960E94A20039
S11303C08E819F81FC01968980912C01891730F4DC
S11303D08E819F81FC01868980932C018E819F816F
S11303E0AC014E5F5F4F8E819F81FC018689282F6F
S11303F030E0C901880F991F880F991F880F991F32
S1130400820F931F8E5F9E4FBA010E9453008E810C
S11304109F81FC0126898091000190910101FC01DA
S11304208689281708F48BCF81E0898388CF80914F
S1130430000190910101FC018689282F30E0C90157
S1130440880F991F880F991F880F991F820F931F78
S11304508E5F9E4FFC018081823040F081E0898371
S113046005C080912D018F5F80932D0180912E0115
S1130470882311F081E08983898129960FB6F89445
S1130480DEBF0FBECDBFDF91CF910895CF93DF9331
S113049000D01F92CDB7DEB780913201882321F0BE
S11304A081E080932E015FC010922E0180912C0177
S11304B0898303C08981815089838981282F30E011
S11304C0C901880F991F880F991F880F991F820FE0
S11304D0931F8E5F9E4FFC018081882359F389818D
S11304E0282F30E0C901880F991F880F991F880FA2
S11304F0991F820F931F8E5F9E4F9B838A838A81ED
S11305009B81FC0181819281FC01228133818A815A
S11305109B81FC01328321838A819B81FC0121819F
S113052032818A819B8103962817390769F48A816D
S11305309B81FC0181819281FC01228133818A812A
S11305409B81FC01328321838A819B81FC0181810F
S11305509281FC018681978190930101809300012F
S1130560898180932C0100000F900F900F90DF91F0
S1130570CF910895CF93DF9300D0CDB7DEB78091AC
S1130580260190912701FC018081882339F48FEFA3
S11305909FEF909331018093300115C08091260123
S11305A090912701FC0185819681FC0186819781C8
S11305B09A83898389819A81FC01828193819093B2
S11305C031018093300100000F900F90DF91CF91A3
S11305D00895CF93DF93CDB7DEB780E090E0DF914D
S10B05E0CF910895F894FFCFB8
S9030000FC
